{
  "_format": "hh3-artifact-1",
  "contractName": "Account",
  "sourceName": "contracts/src/protocol/hub/account/Account.sol",
  "abi": [
    {
      "inputs": [
        {
          "internalType": "address",
          "name": "provider",
          "type": "address"
        }
      ],
      "stateMutability": "nonpayable",
      "type": "constructor"
    },
    {
      "anonymous": false,
      "inputs": [
        {
          "indexed": false,
          "internalType": "address",
          "name": "target_",
          "type": "address"
        },
        {
          "indexed": false,
          "internalType": "bytes",
          "name": "data_",
          "type": "bytes"
        },
        {
          "indexed": false,
          "internalType": "bytes",
          "name": "returnData_",
          "type": "bytes"
        }
      ],
      "name": "CallExecuted",
      "type": "event"
    },
    {
      "anonymous": false,
      "inputs": [
        {
          "indexed": false,
          "internalType": "address",
          "name": "target_",
          "type": "address"
        },
        {
          "indexed": false,
          "internalType": "bytes",
          "name": "data_",
          "type": "bytes"
        },
        {
          "indexed": false,
          "internalType": "bytes",
          "name": "returnData_",
          "type": "bytes"
        }
      ],
      "name": "DelegateCallExecuted",
      "type": "event"
    },
    {
      "inputs": [],
      "name": "ADDRESSES_PROVIDER",
      "outputs": [
        {
          "internalType": "contract IAddressesProvider",
          "name": "",
          "type": "address"
        }
      ],
      "stateMutability": "view",
      "type": "function"
    },
    {
      "inputs": [
        {
          "internalType": "address",
          "name": "target_",
          "type": "address"
        },
        {
          "internalType": "bytes",
          "name": "data_",
          "type": "bytes"
        }
      ],
      "name": "executeCall",
      "outputs": [],
      "stateMutability": "nonpayable",
      "type": "function"
    },
    {
      "inputs": [
        {
          "internalType": "address",
          "name": "target_",
          "type": "address"
        },
        {
          "internalType": "bytes",
          "name": "data_",
          "type": "bytes"
        }
      ],
      "name": "executeDelegateCall",
      "outputs": [],
      "stateMutability": "nonpayable",
      "type": "function"
    }
  ],
  "bytecode": "0x608034606f57601f61079438819003918201601f19168301916001600160401b03831184841017607357808492602094604052833981010312606f57516001600160a01b03811690819003606f575f80546001600160a01b03191691909117905560405161070c90816100888239f35b5f80fd5b634e487b7160e01b5f52604160045260245ffdfe6080806040526004361015610012575f80fd5b5f3560e01c9081630542975c1461038d57508063b68df16d146101f85763bca8c7b51461003d575f80fd5b346101f45761004b36610482565b6024602073ffffffffffffffffffffffffffffffffffffffff5f5416604051928380927f21f8a7210000000000000000000000000000000000000000000000000000000082527f485542000000000000000000000000000000000000000000000000000000000060048301525afa9081156101e9576100ea9173ffffffffffffffffffffffffffffffffffffffff915f916101ba575b50163314610556565b61010b73ffffffffffffffffffffffffffffffffffffffff831615156105bb565b5f8082516020840182865af191610120610620565b921561015c576101577fb4c5e06eecc8733d1cabe0b2ce47f8a78f693bba8868ac567558478e33db9ee59360405193849384610692565b0390a1005b60646040517f08c379a000000000000000000000000000000000000000000000000000000000815260206004820152601360248201527f6163636f756e742063616c6c206661696c6564000000000000000000000000006044820152fd5b6101dc915060203d6020116101e2575b6101d481836103da565b81019061052a565b5f6100e1565b503d6101ca565b6040513d5f823e3d90fd5b5f80fd5b346101f45761020636610482565b6024602073ffffffffffffffffffffffffffffffffffffffff5f5416604051928380927f21f8a7210000000000000000000000000000000000000000000000000000000082527f485542000000000000000000000000000000000000000000000000000000000060048301525afa9081156101e9576102a49173ffffffffffffffffffffffffffffffffffffffff915f9161036e5750163314610556565b6102c573ffffffffffffffffffffffffffffffffffffffff831615156105bb565b5f80825160208401855af4916102d9610620565b9215610310576101577f55c41f097e6a3a7c74714361ec27922b31d753a3474c7ef87cb3d16c7557da6a9360405193849384610692565b60646040517f08c379a000000000000000000000000000000000000000000000000000000000815260206004820152601b60248201527f6163636f756e742064656c656761746563616c6c206661696c656400000000006044820152fd5b610387915060203d6020116101e2576101d481836103da565b856100e1565b346101f4575f7ffffffffffffffffffffffffffffffffffffffffffffffffffffffffffffffffc3601126101f45760209073ffffffffffffffffffffffffffffffffffffffff5f54168152f35b90601f7fffffffffffffffffffffffffffffffffffffffffffffffffffffffffffffffe0910116810190811067ffffffffffffffff82111761041b57604052565b7f4e487b71000000000000000000000000000000000000000000000000000000005f52604160045260245ffd5b67ffffffffffffffff811161041b57601f017fffffffffffffffffffffffffffffffffffffffffffffffffffffffffffffffe01660200190565b9060407ffffffffffffffffffffffffffffffffffffffffffffffffffffffffffffffffc8301126101f45760043573ffffffffffffffffffffffffffffffffffffffff811681036101f4579160243567ffffffffffffffff81116101f457816023820112156101f4578060040135906104fa82610448565b9261050860405194856103da565b828452602483830101116101f457815f92602460209301838601378301015290565b908160209103126101f4575173ffffffffffffffffffffffffffffffffffffffff811681036101f45790565b1561055d57565b60646040517f08c379a000000000000000000000000000000000000000000000000000000000815260206004820152600e60248201527f63616c6c6572206e6f74206875620000000000000000000000000000000000006044820152fd5b156105c257565b60646040517f08c379a000000000000000000000000000000000000000000000000000000000815260206004820152601860248201527f63616e6e6f742063616c6c20746f2030206164647265737300000000000000006044820152fd5b3d1561064a573d9061063182610448565b9161063f60405193846103da565b82523d5f602084013e565b606090565b907fffffffffffffffffffffffffffffffffffffffffffffffffffffffffffffffe0601f602080948051918291828752018686015e5f8582860101520116010190565b916106c59073ffffffffffffffffffffffffffffffffffffffff6106d3959316845260606020850152606084019061064f565b91604081840391015261064f565b9056fea26469706673582212208d4643818881cbf2d2e14cf6aa7caed1eec5b1ae019df00714352a59978cd0c564736f6c634300081c0033",
  "linkReferences": {},
  "deployedLinkReferences": {},
  "immutableReferences": {},
  "inputSourceName": "project/contracts/src/protocol/hub/account/Account.sol",
  "buildInfoId": "solc-0_8_28-4ebd2109964856696b5f362567d2dca204ca314b"
}