{
  "_format": "hh3-artifact-1",
  "contractName": "AccountImplementation",
  "sourceName": "contracts/src/protocol/hub/account/AccountImplementation.sol",
  "abi": [
    {
      "inputs": [
        {
          "internalType": "contract IAddressesProvider",
          "name": "provider",
          "type": "address"
        }
      ],
      "stateMutability": "nonpayable",
      "type": "constructor"
    },
    {
      "inputs": [
        {
          "internalType": "address",
          "name": "token",
          "type": "address"
        }
      ],
      "name": "SafeERC20FailedOperation",
      "type": "error"
    },
    {
      "inputs": [],
      "name": "ADDRESSES_PROVIDER",
      "outputs": [
        {
          "internalType": "contract IAddressesProvider",
          "name": "",
          "type": "address"
        }
      ],
      "stateMutability": "view",
      "type": "function"
    },
    {
      "inputs": [
        {
          "internalType": "address",
          "name": "asset",
          "type": "address"
        },
        {
          "internalType": "uint256",
          "name": "amount",
          "type": "uint256"
        },
        {
          "internalType": "address",
          "name": "onBehalfOf",
          "type": "address"
        }
      ],
      "name": "borrow",
      "outputs": [],
      "stateMutability": "nonpayable",
      "type": "function"
    },
    {
      "inputs": [
        {
          "internalType": "address",
          "name": "violator",
          "type": "address"
        },
        {
          "internalType": "address",
          "name": "collateral",
          "type": "address"
        },
        {
          "internalType": "address",
          "name": "debt",
          "type": "address"
        },
        {
          "internalType": "uint256",
          "name": "amount",
          "type": "uint256"
        }
      ],
      "name": "liquidation",
      "outputs": [],
      "stateMutability": "nonpayable",
      "type": "function"
    },
    {
      "inputs": [
        {
          "internalType": "address",
          "name": "asset",
          "type": "address"
        },
        {
          "internalType": "uint256",
          "name": "amount",
          "type": "uint256"
        },
        {
          "internalType": "address",
          "name": "onBehalfOf",
          "type": "address"
        }
      ],
      "name": "repay",
      "outputs": [],
      "stateMutability": "nonpayable",
      "type": "function"
    },
    {
      "inputs": [
        {
          "internalType": "address",
          "name": "asset",
          "type": "address"
        },
        {
          "internalType": "bool",
          "name": "useAsCollateral",
          "type": "bool"
        }
      ],
      "name": "setAsCollateral",
      "outputs": [],
      "stateMutability": "nonpayable",
      "type": "function"
    },
    {
      "inputs": [
        {
          "internalType": "address",
          "name": "asset",
          "type": "address"
        },
        {
          "internalType": "uint256",
          "name": "amount",
          "type": "uint256"
        },
        {
          "internalType": "address",
          "name": "onBehalfOf",
          "type": "address"
        }
      ],
      "name": "supply",
      "outputs": [],
      "stateMutability": "nonpayable",
      "type": "function"
    },
    {
      "inputs": [
        {
          "internalType": "address",
          "name": "asset",
          "type": "address"
        },
        {
          "internalType": "uint256",
          "name": "amount",
          "type": "uint256"
        },
        {
          "internalType": "address",
          "name": "to",
          "type": "address"
        }
      ],
      "name": "withdraw",
      "outputs": [],
      "stateMutability": "nonpayable",
      "type": "function"
    }
  ],
  "bytecode": "0x60a0346100be57601f61175738819003918201601f19168301916001600160401b038311848410176100c2578084926020946040528339810103126100be57516001600160a01b03811681036100be5760805260405161168090816100d78239608051818181610116015281816102290152818161031a015281816103ec015281816104be015281816105f90152818161069e015281816108c301528181610a6301528181610d0501528181610f67015281816110c001526112330152f35b5f80fd5b634e487b7160e01b5f52604160045260245ffdfe6080806040526004361015610012575f80fd5b5f3560e01c9081630542975c146106565750806312e20d03146105175780635ceae9c41461044557806369328dec146103735780636c665a55146102a15780638b2a4df5146101b05763e131899414610069575f80fd5b346101ac5760407ffffffffffffffffffffffffffffffffffffffffffffffffffffffffffffffffc3601126101ac576100a06106c2565b60243580151581036101ac57604051917f21f8a7210000000000000000000000000000000000000000000000000000000083527f4855420000000000000000000000000000000000000000000000000000000000600484015260208360248173ffffffffffffffffffffffffffffffffffffffff7f0000000000000000000000000000000000000000000000000000000000000000165afa80156101a15773ffffffffffffffffffffffffffffffffffffffff61016b91610170955f91610172575b501633146107f1565b6111ca565b005b610194915060203d60201161019a575b61018c8183610757565b8101906107c5565b5f610162565b503d610182565b6040513d5f823e3d90fd5b5f80fd5b346101ac576101be366106e5565b90604051927f21f8a7210000000000000000000000000000000000000000000000000000000084527f4855420000000000000000000000000000000000000000000000000000000000600485015260208460248173ffffffffffffffffffffffffffffffffffffffff7f0000000000000000000000000000000000000000000000000000000000000000165afa80156101a15773ffffffffffffffffffffffffffffffffffffffff61027d91610170965f9161028257501633146107f1565b611055565b61029b915060203d60201161019a5761018c8183610757565b87610162565b346101ac576102af366106e5565b90604051927f21f8a7210000000000000000000000000000000000000000000000000000000084527f4855420000000000000000000000000000000000000000000000000000000000600485015260208460248173ffffffffffffffffffffffffffffffffffffffff7f0000000000000000000000000000000000000000000000000000000000000000165afa80156101a15773ffffffffffffffffffffffffffffffffffffffff61036e91610170965f9161028257501633146107f1565b610efc565b346101ac57610381366106e5565b90604051927f21f8a7210000000000000000000000000000000000000000000000000000000084527f4855420000000000000000000000000000000000000000000000000000000000600485015260208460248173ffffffffffffffffffffffffffffffffffffffff7f0000000000000000000000000000000000000000000000000000000000000000165afa80156101a15773ffffffffffffffffffffffffffffffffffffffff61044091610170965f9161028257501633146107f1565b610c9b565b346101ac57610453366106e5565b90604051927f21f8a7210000000000000000000000000000000000000000000000000000000084527f4855420000000000000000000000000000000000000000000000000000000000600485015260208460248173ffffffffffffffffffffffffffffffffffffffff7f0000000000000000000000000000000000000000000000000000000000000000165afa80156101a15773ffffffffffffffffffffffffffffffffffffffff61051291610170965f9161028257501633146107f1565b6109f8565b346101ac5760807ffffffffffffffffffffffffffffffffffffffffffffffffffffffffffffffffc3601126101ac5761054e6106c2565b6024359073ffffffffffffffffffffffffffffffffffffffff821682036101ac5760443573ffffffffffffffffffffffffffffffffffffffff811681036101ac57604051927f21f8a7210000000000000000000000000000000000000000000000000000000084527f4855420000000000000000000000000000000000000000000000000000000000600485015260208460248173ffffffffffffffffffffffffffffffffffffffff7f0000000000000000000000000000000000000000000000000000000000000000165afa80156101a15773ffffffffffffffffffffffffffffffffffffffff61064d91610170965f9161028257501633146107f1565b60643592610856565b346101ac575f7ffffffffffffffffffffffffffffffffffffffffffffffffffffffffffffffffc3601126101ac5760209073ffffffffffffffffffffffffffffffffffffffff7f0000000000000000000000000000000000000000000000000000000000000000168152f35b6004359073ffffffffffffffffffffffffffffffffffffffff821682036101ac57565b7ffffffffffffffffffffffffffffffffffffffffffffffffffffffffffffffffc60609101126101ac5760043573ffffffffffffffffffffffffffffffffffffffff811681036101ac57906024359060443573ffffffffffffffffffffffffffffffffffffffff811681036101ac5790565b90601f7fffffffffffffffffffffffffffffffffffffffffffffffffffffffffffffffe0910116810190811067ffffffffffffffff82111761079857604052565b7f4e487b71000000000000000000000000000000000000000000000000000000005f52604160045260245ffd5b908160209103126101ac575173ffffffffffffffffffffffffffffffffffffffff811681036101ac5790565b156107f857565b60646040517f08c379a000000000000000000000000000000000000000000000000000000000815260206004820152600e60248201527f63616c6c6572206e6f74206875620000000000000000000000000000000000006044820152fd5b919092604051937f21f8a7210000000000000000000000000000000000000000000000000000000085527f4c454e44494e475f504f4f4c0000000000000000000000000000000000000000600486015260208560248173ffffffffffffffffffffffffffffffffffffffff7f0000000000000000000000000000000000000000000000000000000000000000165afa9485156101a1575f956109c8575b5073ffffffffffffffffffffffffffffffffffffffff85169283156109c05782156109c0578273ffffffffffffffffffffffffffffffffffffffff61093a92169687611404565b823b156101ac575f73ffffffffffffffffffffffffffffffffffffffff9360a493858397604051998a9889977ea718a900000000000000000000000000000000000000000000000000000000895216600488015260248701521660448501526064840152600160848401525af180156101a1576109b45750565b5f6109be91610757565b565b505050505050565b6109e291955060203d60201161019a5761018c8183610757565b935f6108f3565b908160209103126101ac575190565b90604051917f21f8a7210000000000000000000000000000000000000000000000000000000083527f4c454e44494e475f504f4f4c0000000000000000000000000000000000000000600484015260208360248173ffffffffffffffffffffffffffffffffffffffff7f0000000000000000000000000000000000000000000000000000000000000000165afa9283156101a1575f93610c7a575b5073ffffffffffffffffffffffffffffffffffffffff8316908115610c1c5773ffffffffffffffffffffffffffffffffffffffff604051917f365090a00000000000000000000000000000000000000000000000000000000083521690816004820152602081602481865afa9081156101a15773ffffffffffffffffffffffffffffffffffffffff916020915f91610c5d575b506024604051809481937f70a08231000000000000000000000000000000000000000000000000000000008352306004840152165afa9081156101a1575f91610c2b575b50808411610c23575b508215610c1c575f608492610b8b8560209785611404565b73ffffffffffffffffffffffffffffffffffffffff60405197889687957f573ade8100000000000000000000000000000000000000000000000000000000875260048701526024860152600260448601521660648401525af180156101a157610bf15750565b610c129060203d602011610c15575b610c0a8183610757565b8101906109e9565b50565b503d610c00565b5050505050565b92505f610b73565b90506020813d602011610c55575b81610c4660209383610757565b810103126101ac57515f610b6a565b3d9150610c39565b610c749150823d841161019a5761018c8183610757565b5f610b26565b610c9491935060203d60201161019a5761018c8183610757565b915f610a93565b906040517f21f8a7210000000000000000000000000000000000000000000000000000000081527f4c454e44494e475f504f4f4c0000000000000000000000000000000000000000600482015260208160248173ffffffffffffffffffffffffffffffffffffffff7f0000000000000000000000000000000000000000000000000000000000000000165afa80156101a15773ffffffffffffffffffffffffffffffffffffffff915f91610edd575b50168015610e805773ffffffffffffffffffffffffffffffffffffffff604051937fcff027d90000000000000000000000000000000000000000000000000000000085521692836004820152602081602481855afa9081156101a15773ffffffffffffffffffffffffffffffffffffffff916020915f91610ec0575b506024604051809481937f70a08231000000000000000000000000000000000000000000000000000000008352306004840152165afa9081156101a1575f91610e8e575b50808311610e86575b508115610e80576020925f60649273ffffffffffffffffffffffffffffffffffffffff60405197889687957f69328dec000000000000000000000000000000000000000000000000000000008752600487015260248601521660448401525af180156101a157610bf15750565b50505050565b91505f610e13565b90506020813d602011610eb8575b81610ea960209383610757565b810103126101ac57515f610e0a565b3d9150610e9c565b610ed79150823d841161019a5761018c8183610757565b5f610dc6565b610ef6915060203d60201161019a5761018c8183610757565b5f610d4a565b90916040517f21f8a7210000000000000000000000000000000000000000000000000000000081527f4c454e44494e475f504f4f4c0000000000000000000000000000000000000000600482015260208160248173ffffffffffffffffffffffffffffffffffffffff7f0000000000000000000000000000000000000000000000000000000000000000165afa80156101a15773ffffffffffffffffffffffffffffffffffffffff915f91611036575b50168015610e80578315610e8057803b156101ac575f928360a49273ffffffffffffffffffffffffffffffffffffffff809560405198899788967fa415bcad0000000000000000000000000000000000000000000000000000000088521660048701526024860152600260448601528360648601521660848401525af180156101a1576109b45750565b61104f915060203d60201161019a5761018c8183610757565b5f610fac565b90604051917f21f8a7210000000000000000000000000000000000000000000000000000000083527f4c454e44494e475f504f4f4c0000000000000000000000000000000000000000600484015260208360248173ffffffffffffffffffffffffffffffffffffffff7f0000000000000000000000000000000000000000000000000000000000000000165afa9283156101a1575f936111a9575b5073ffffffffffffffffffffffffffffffffffffffff8316908115610c1c578215610c1c578273ffffffffffffffffffffffffffffffffffffffff61113792169485611404565b803b156101ac575f928360849273ffffffffffffffffffffffffffffffffffffffff60405197889687957f617ba037000000000000000000000000000000000000000000000000000000008752600487015260248601521660448401528160648401525af180156101a1576109b45750565b6111c391935060203d60201161019a5761018c8183610757565b915f6110f0565b6040517f21f8a7210000000000000000000000000000000000000000000000000000000081527f4c454e44494e475f504f4f4c0000000000000000000000000000000000000000600482015260208160248173ffffffffffffffffffffffffffffffffffffffff7f0000000000000000000000000000000000000000000000000000000000000000165afa80156101a15773ffffffffffffffffffffffffffffffffffffffff915f916113e5575b50169182156113915773ffffffffffffffffffffffffffffffffffffffff604051927fcff027d90000000000000000000000000000000000000000000000000000000084521691826004820152602081602481875afa9081156101a15773ffffffffffffffffffffffffffffffffffffffff916020915f916113c8575b506024604051809481937f70a08231000000000000000000000000000000000000000000000000000000008352306004840152165afa9081156101a1575f91611396575b501561139157823b156101ac5760445f928360405195869485937f5a3b74b90000000000000000000000000000000000000000000000000000000085526004850152151560248401525af180156101a1576109b45750565b505050565b90506020813d6020116113c0575b816113b160209383610757565b810103126101ac57515f611339565b3d91506113a4565b6113df9150823d841161019a5761018c8183610757565b5f6112f5565b6113fe915060203d60201161019a5761018c8183610757565b5f611278565b73ffffffffffffffffffffffffffffffffffffffff811673ffffffffffffffffffffffffffffffffffffffff604051937fdd62ed3e0000000000000000000000000000000000000000000000000000000085523060048601521693846024850152602084604481855afa9384156101a1575f9461158f575b5083018093116115625760205f60405194828601907f095ea7b30000000000000000000000000000000000000000000000000000000082528760248801526044870152604486526114ce606487610757565b85519082865af1903d5f519083611543575b505050156114ed57505050565b61153e6109be93604051907f095ea7b300000000000000000000000000000000000000000000000000000000602083015260248201525f604482015260448152611538606482610757565b826115c3565b6115c3565b9192509061155857503b15155b5f80806114e0565b6001915014611550565b7f4e487b71000000000000000000000000000000000000000000000000000000005f52601160045260245ffd5b9093506020813d6020116115bb575b816115ab60209383610757565b810103126101ac5751925f61147c565b3d915061159e565b905f602091828151910182855af1156101a1575f513d611641575073ffffffffffffffffffffffffffffffffffffffff81163b155b6115ff5750565b73ffffffffffffffffffffffffffffffffffffffff907f5274afe7000000000000000000000000000000000000000000000000000000005f521660045260245ffd5b600114156115f856fea26469706673582212206ba2cc16daaaa1ef078e9dd485634d55820a62c010b5fd3fd2c80b240cbf11a664736f6c634300081c0033",
  "linkReferences": {},
  "deployedLinkReferences": {},
  "immutableReferences": {
    "3372": [
      {
        "length": 32,
        "start": 278
      },
      {
        "length": 32,
        "start": 553
      },
      {
        "length": 32,
        "start": 794
      },
      {
        "length": 32,
        "start": 1004
      },
      {
        "length": 32,
        "start": 1214
      },
      {
        "length": 32,
        "start": 1529
      },
      {
        "length": 32,
        "start": 1694
      },
      {
        "length": 32,
        "start": 2243
      },
      {
        "length": 32,
        "start": 2659
      },
      {
        "length": 32,
        "start": 3333
      },
      {
        "length": 32,
        "start": 3943
      },
      {
        "length": 32,
        "start": 4288
      },
      {
        "length": 32,
        "start": 4659
      }
    ]
  },
  "inputSourceName": "project/contracts/src/protocol/hub/account/AccountImplementation.sol",
  "buildInfoId": "solc-0_8_28-a91c7dcb823261abd61bf15166b67a58ef42fefc"
}