{
  "_format": "hh3-artifact-1",
  "contractName": "ACLManager",
  "sourceName": "contracts/src/protocol/hub/lending/contracts/protocol/configuration/ACLManager.sol",
  "abi": [
    {
      "inputs": [
        {
          "internalType": "contract IPoolAddressesProvider",
          "name": "provider",
          "type": "address"
        }
      ],
      "stateMutability": "nonpayable",
      "type": "constructor"
    },
    {
      "inputs": [],
      "name": "AclAdminCannotBeZero",
      "type": "error"
    },
    {
      "anonymous": false,
      "inputs": [
        {
          "indexed": true,
          "internalType": "bytes32",
          "name": "role",
          "type": "bytes32"
        },
        {
          "indexed": true,
          "internalType": "bytes32",
          "name": "previousAdminRole",
          "type": "bytes32"
        },
        {
          "indexed": true,
          "internalType": "bytes32",
          "name": "newAdminRole",
          "type": "bytes32"
        }
      ],
      "name": "RoleAdminChanged",
      "type": "event"
    },
    {
      "anonymous": false,
      "inputs": [
        {
          "indexed": true,
          "internalType": "bytes32",
          "name": "role",
          "type": "bytes32"
        },
        {
          "indexed": true,
          "internalType": "address",
          "name": "account",
          "type": "address"
        },
        {
          "indexed": true,
          "internalType": "address",
          "name": "sender",
          "type": "address"
        }
      ],
      "name": "RoleGranted",
      "type": "event"
    },
    {
      "anonymous": false,
      "inputs": [
        {
          "indexed": true,
          "internalType": "bytes32",
          "name": "role",
          "type": "bytes32"
        },
        {
          "indexed": true,
          "internalType": "address",
          "name": "account",
          "type": "address"
        },
        {
          "indexed": true,
          "internalType": "address",
          "name": "sender",
          "type": "address"
        }
      ],
      "name": "RoleRevoked",
      "type": "event"
    },
    {
      "inputs": [],
      "name": "ADDRESSES_PROVIDER",
      "outputs": [
        {
          "internalType": "contract IPoolAddressesProvider",
          "name": "",
          "type": "address"
        }
      ],
      "stateMutability": "view",
      "type": "function"
    },
    {
      "inputs": [],
      "name": "ASSET_LISTING_ADMIN_ROLE",
      "outputs": [
        {
          "internalType": "bytes32",
          "name": "",
          "type": "bytes32"
        }
      ],
      "stateMutability": "view",
      "type": "function"
    },
    {
      "inputs": [],
      "name": "BRIDGE_ROLE",
      "outputs": [
        {
          "internalType": "bytes32",
          "name": "",
          "type": "bytes32"
        }
      ],
      "stateMutability": "view",
      "type": "function"
    },
    {
      "inputs": [],
      "name": "DEFAULT_ADMIN_ROLE",
      "outputs": [
        {
          "internalType": "bytes32",
          "name": "",
          "type": "bytes32"
        }
      ],
      "stateMutability": "view",
      "type": "function"
    },
    {
      "inputs": [],
      "name": "EMERGENCY_ADMIN_ROLE",
      "outputs": [
        {
          "internalType": "bytes32",
          "name": "",
          "type": "bytes32"
        }
      ],
      "stateMutability": "view",
      "type": "function"
    },
    {
      "inputs": [],
      "name": "FLASH_BORROWER_ROLE",
      "outputs": [
        {
          "internalType": "bytes32",
          "name": "",
          "type": "bytes32"
        }
      ],
      "stateMutability": "view",
      "type": "function"
    },
    {
      "inputs": [],
      "name": "POOL_ADMIN_ROLE",
      "outputs": [
        {
          "internalType": "bytes32",
          "name": "",
          "type": "bytes32"
        }
      ],
      "stateMutability": "view",
      "type": "function"
    },
    {
      "inputs": [],
      "name": "RISK_ADMIN_ROLE",
      "outputs": [
        {
          "internalType": "bytes32",
          "name": "",
          "type": "bytes32"
        }
      ],
      "stateMutability": "view",
      "type": "function"
    },
    {
      "inputs": [
        {
          "internalType": "address",
          "name": "admin",
          "type": "address"
        }
      ],
      "name": "addAssetListingAdmin",
      "outputs": [],
      "stateMutability": "nonpayable",
      "type": "function"
    },
    {
      "inputs": [
        {
          "internalType": "address",
          "name": "bridge",
          "type": "address"
        }
      ],
      "name": "addBridge",
      "outputs": [],
      "stateMutability": "nonpayable",
      "type": "function"
    },
    {
      "inputs": [
        {
          "internalType": "address",
          "name": "admin",
          "type": "address"
        }
      ],
      "name": "addEmergencyAdmin",
      "outputs": [],
      "stateMutability": "nonpayable",
      "type": "function"
    },
    {
      "inputs": [
        {
          "internalType": "address",
          "name": "borrower",
          "type": "address"
        }
      ],
      "name": "addFlashBorrower",
      "outputs": [],
      "stateMutability": "nonpayable",
      "type": "function"
    },
    {
      "inputs": [
        {
          "internalType": "address",
          "name": "admin",
          "type": "address"
        }
      ],
      "name": "addPoolAdmin",
      "outputs": [],
      "stateMutability": "nonpayable",
      "type": "function"
    },
    {
      "inputs": [
        {
          "internalType": "address",
          "name": "admin",
          "type": "address"
        }
      ],
      "name": "addRiskAdmin",
      "outputs": [],
      "stateMutability": "nonpayable",
      "type": "function"
    },
    {
      "inputs": [
        {
          "internalType": "bytes32",
          "name": "role",
          "type": "bytes32"
        }
      ],
      "name": "getRoleAdmin",
      "outputs": [
        {
          "internalType": "bytes32",
          "name": "",
          "type": "bytes32"
        }
      ],
      "stateMutability": "view",
      "type": "function"
    },
    {
      "inputs": [
        {
          "internalType": "bytes32",
          "name": "role",
          "type": "bytes32"
        },
        {
          "internalType": "address",
          "name": "account",
          "type": "address"
        }
      ],
      "name": "grantRole",
      "outputs": [],
      "stateMutability": "nonpayable",
      "type": "function"
    },
    {
      "inputs": [
        {
          "internalType": "bytes32",
          "name": "role",
          "type": "bytes32"
        },
        {
          "internalType": "address",
          "name": "account",
          "type": "address"
        }
      ],
      "name": "hasRole",
      "outputs": [
        {
          "internalType": "bool",
          "name": "",
          "type": "bool"
        }
      ],
      "stateMutability": "view",
      "type": "function"
    },
    {
      "inputs": [
        {
          "internalType": "address",
          "name": "admin",
          "type": "address"
        }
      ],
      "name": "isAssetListingAdmin",
      "outputs": [
        {
          "internalType": "bool",
          "name": "",
          "type": "bool"
        }
      ],
      "stateMutability": "view",
      "type": "function"
    },
    {
      "inputs": [
        {
          "internalType": "address",
          "name": "bridge",
          "type": "address"
        }
      ],
      "name": "isBridge",
      "outputs": [
        {
          "internalType": "bool",
          "name": "",
          "type": "bool"
        }
      ],
      "stateMutability": "view",
      "type": "function"
    },
    {
      "inputs": [
        {
          "internalType": "address",
          "name": "admin",
          "type": "address"
        }
      ],
      "name": "isEmergencyAdmin",
      "outputs": [
        {
          "internalType": "bool",
          "name": "",
          "type": "bool"
        }
      ],
      "stateMutability": "view",
      "type": "function"
    },
    {
      "inputs": [
        {
          "internalType": "address",
          "name": "borrower",
          "type": "address"
        }
      ],
      "name": "isFlashBorrower",
      "outputs": [
        {
          "internalType": "bool",
          "name": "",
          "type": "bool"
        }
      ],
      "stateMutability": "view",
      "type": "function"
    },
    {
      "inputs": [
        {
          "internalType": "address",
          "name": "admin",
          "type": "address"
        }
      ],
      "name": "isPoolAdmin",
      "outputs": [
        {
          "internalType": "bool",
          "name": "",
          "type": "bool"
        }
      ],
      "stateMutability": "view",
      "type": "function"
    },
    {
      "inputs": [
        {
          "internalType": "address",
          "name": "admin",
          "type": "address"
        }
      ],
      "name": "isRiskAdmin",
      "outputs": [
        {
          "internalType": "bool",
          "name": "",
          "type": "bool"
        }
      ],
      "stateMutability": "view",
      "type": "function"
    },
    {
      "inputs": [
        {
          "internalType": "address",
          "name": "admin",
          "type": "address"
        }
      ],
      "name": "removeAssetListingAdmin",
      "outputs": [],
      "stateMutability": "nonpayable",
      "type": "function"
    },
    {
      "inputs": [
        {
          "internalType": "address",
          "name": "bridge",
          "type": "address"
        }
      ],
      "name": "removeBridge",
      "outputs": [],
      "stateMutability": "nonpayable",
      "type": "function"
    },
    {
      "inputs": [
        {
          "internalType": "address",
          "name": "admin",
          "type": "address"
        }
      ],
      "name": "removeEmergencyAdmin",
      "outputs": [],
      "stateMutability": "nonpayable",
      "type": "function"
    },
    {
      "inputs": [
        {
          "internalType": "address",
          "name": "borrower",
          "type": "address"
        }
      ],
      "name": "removeFlashBorrower",
      "outputs": [],
      "stateMutability": "nonpayable",
      "type": "function"
    },
    {
      "inputs": [
        {
          "internalType": "address",
          "name": "admin",
          "type": "address"
        }
      ],
      "name": "removePoolAdmin",
      "outputs": [],
      "stateMutability": "nonpayable",
      "type": "function"
    },
    {
      "inputs": [
        {
          "internalType": "address",
          "name": "admin",
          "type": "address"
        }
      ],
      "name": "removeRiskAdmin",
      "outputs": [],
      "stateMutability": "nonpayable",
      "type": "function"
    },
    {
      "inputs": [
        {
          "internalType": "bytes32",
          "name": "role",
          "type": "bytes32"
        },
        {
          "internalType": "address",
          "name": "account",
          "type": "address"
        }
      ],
      "name": "renounceRole",
      "outputs": [],
      "stateMutability": "nonpayable",
      "type": "function"
    },
    {
      "inputs": [
        {
          "internalType": "bytes32",
          "name": "role",
          "type": "bytes32"
        },
        {
          "internalType": "address",
          "name": "account",
          "type": "address"
        }
      ],
      "name": "revokeRole",
      "outputs": [],
      "stateMutability": "nonpayable",
      "type": "function"
    },
    {
      "inputs": [
        {
          "internalType": "bytes32",
          "name": "role",
          "type": "bytes32"
        },
        {
          "internalType": "bytes32",
          "name": "adminRole",
          "type": "bytes32"
        }
      ],
      "name": "setRoleAdmin",
      "outputs": [],
      "stateMutability": "nonpayable",
      "type": "function"
    },
    {
      "inputs": [
        {
          "internalType": "bytes4",
          "name": "interfaceId",
          "type": "bytes4"
        }
      ],
      "name": "supportsInterface",
      "outputs": [
        {
          "internalType": "bool",
          "name": "",
          "type": "bool"
        }
      ],
      "stateMutability": "view",
      "type": "function"
    }
  ],
  "bytecode": "0x60a0806040523461014c5760208161210d803803809161001f8285610163565b83398101031261014c57516001600160a01b0381169081810361014c57608052604051630399c5e360e21b815290602090829060049082905afa908115610158575f91610112575b506001600160a01b03168015610103575f8181525f5160206120ed5f395f51905f52602052604090205460ff16156100b2575b604051611f52908161019b82396080518161186a0152f35b5f8181525f5160206120ed5f395f51905f5260205260408120805460ff191660011790553391907f2f8788117e7eff1d82e926ec794901d17c78024a50270940304540a733656f0d8180a45f61009a565b635dadfdd760e11b5f5260045ffd5b90506020813d602011610150575b8161012d60209383610163565b8101031261014c57516001600160a01b038116810361014c575f610067565b5f80fd5b3d9150610120565b6040513d5f823e3d90fd5b601f909101601f19168101906001600160401b0382119082101761018657604052565b634e487b7160e01b5f52604160045260245ffdfe6080806040526004361015610012575f80fd5b5f3560e01c90816301ffc9a7146119dc5750806304df017d1461188e5780630542975c1461183e57806313ee32e0146117d0578063179efb091461167e5780631e4e0091146114b757806322650caf14611365578063248a9ca3146113335780632500f2b6146112c5578063253cf980146111775780632f2ff15d1461109757806336568abe14610fd15780633c5a08e514610e835780634f16b42514610e495780635577b7a914610e0f5780635b9a94e414610cbd578063674b5e4d14610c4f5780636e76fc8f14610c15578063726600ce14610ba757806378bb0a4314610b6d5780637a9a93f414610a1f5780637be53ca1146109b157806391d148541461095b5780639712fdf8146108095780639a2b96f7146106b75780639ac9d80b14610565578063a217fddf1461054b578063a21bce15146103fd578063b5bfddea146103c3578063b8f6dba714610389578063d547741f1461034a578063f83695cb146101f95763fa50f29714610187575f80fd5b346101f55760206003193601126101f5576101a0611a7a565b73ffffffffffffffffffffffffffffffffffffffff165f9081527f2eadd72b6698cc7bfac8abf613f53107771ac2a3e4a3221cda0a8e2b1b91b0b4602090815260409182902054915160ff9092161515825290f35b5f80fd5b346101f55760206003193601126101f557610212611a7a565b7f12ad05bde78c5ab75238ce885307f96ecd482bb402ef831f99e7018a0f169b7b5f9081526020527fd21b659ff028ba5860060da0a2ef0b8b1b13b1f79963511fcee160c2e54d2f2354610268905b3390611b2e565b73ffffffffffffffffffffffffffffffffffffffff81165f9081527fd21b659ff028ba5860060da0a2ef0b8b1b13b1f79963511fcee160c2e54d2f22602052604090205460ff166102b557005b73ffffffffffffffffffffffffffffffffffffffff165f8181527fd21b659ff028ba5860060da0a2ef0b8b1b13b1f79963511fcee160c2e54d2f2260205260408120805460ff191690553391907f12ad05bde78c5ab75238ce885307f96ecd482bb402ef831f99e7018a0f169b7b907ff6391f5c32d9c69d2a47ea670b442974b53935d1edc7fd64eb21e047a839171b9080a4005b346101f55760406003193601126101f557610387600435610369611a9d565b90610382610261825f525f602052600160405f20015490565b611b98565b005b346101f5575f6003193601126101f55760206040517f12ad05bde78c5ab75238ce885307f96ecd482bb402ef831f99e7018a0f169b7b8152f35b346101f5575f6003193601126101f55760206040517f08fb31c3e81624356c3314088aa971b73bcc82d22bc3e3b184b4593077ae32788152f35b346101f55760206003193601126101f557610416611a7a565b7f19c860a63258efbd0ecb7d55c626237bf5c2044c26c073390b74f0c13c8574335f9081526020527fcba084d2e26105260e9ae84b007967d64af085c681345e4941eeba502738cf455461046990610261565b73ffffffffffffffffffffffffffffffffffffffff81165f9081527fcba084d2e26105260e9ae84b007967d64af085c681345e4941eeba502738cf44602052604090205460ff166104b657005b73ffffffffffffffffffffffffffffffffffffffff165f8181527fcba084d2e26105260e9ae84b007967d64af085c681345e4941eeba502738cf4460205260408120805460ff191690553391907f19c860a63258efbd0ecb7d55c626237bf5c2044c26c073390b74f0c13c857433907ff6391f5c32d9c69d2a47ea670b442974b53935d1edc7fd64eb21e047a839171b9080a4005b346101f5575f6003193601126101f55760206040515f8152f35b346101f55760206003193601126101f55761057e611a7a565b7f939b8dfb57ecef2aea54a93a15e86768b9d4089f1ba61c245e6ec980695f4ca45f9081526020527f2eadd72b6698cc7bfac8abf613f53107771ac2a3e4a3221cda0a8e2b1b91b0b5546105d190610261565b73ffffffffffffffffffffffffffffffffffffffff81165f9081527f2eadd72b6698cc7bfac8abf613f53107771ac2a3e4a3221cda0a8e2b1b91b0b4602052604090205460ff161561061f57005b73ffffffffffffffffffffffffffffffffffffffff165f8181527f2eadd72b6698cc7bfac8abf613f53107771ac2a3e4a3221cda0a8e2b1b91b0b460205260408120805460ff191660011790553391907f939b8dfb57ecef2aea54a93a15e86768b9d4089f1ba61c245e6ec980695f4ca4907f2f8788117e7eff1d82e926ec794901d17c78024a50270940304540a733656f0d9080a4005b346101f55760206003193601126101f5576106d0611a7a565b7f19c860a63258efbd0ecb7d55c626237bf5c2044c26c073390b74f0c13c8574335f9081526020527fcba084d2e26105260e9ae84b007967d64af085c681345e4941eeba502738cf455461072390610261565b73ffffffffffffffffffffffffffffffffffffffff81165f9081527fcba084d2e26105260e9ae84b007967d64af085c681345e4941eeba502738cf44602052604090205460ff161561077157005b73ffffffffffffffffffffffffffffffffffffffff165f8181527fcba084d2e26105260e9ae84b007967d64af085c681345e4941eeba502738cf4460205260408120805460ff191660011790553391907f19c860a63258efbd0ecb7d55c626237bf5c2044c26c073390b74f0c13c857433907f2f8788117e7eff1d82e926ec794901d17c78024a50270940304540a733656f0d9080a4005b346101f55760206003193601126101f557610822611a7a565b7f08fb31c3e81624356c3314088aa971b73bcc82d22bc3e3b184b4593077ae32785f9081526020527f9e350b38c6d0090a0631963682975411c4e88e66bd66d7f4ffcc296b4c83bf945461087590610261565b73ffffffffffffffffffffffffffffffffffffffff81165f9081527f9e350b38c6d0090a0631963682975411c4e88e66bd66d7f4ffcc296b4c83bf93602052604090205460ff16156108c357005b73ffffffffffffffffffffffffffffffffffffffff165f8181527f9e350b38c6d0090a0631963682975411c4e88e66bd66d7f4ffcc296b4c83bf9360205260408120805460ff191660011790553391907f08fb31c3e81624356c3314088aa971b73bcc82d22bc3e3b184b4593077ae3278907f2f8788117e7eff1d82e926ec794901d17c78024a50270940304540a733656f0d9080a4005b346101f55760406003193601126101f557610974611a9d565b6004355f525f60205273ffffffffffffffffffffffffffffffffffffffff60405f2091165f52602052602060ff60405f2054166040519015158152f35b346101f55760206003193601126101f5576109ca611a7a565b73ffffffffffffffffffffffffffffffffffffffff165f9081527fd21b659ff028ba5860060da0a2ef0b8b1b13b1f79963511fcee160c2e54d2f22602090815260409182902054915160ff9092161515825290f35b346101f55760206003193601126101f557610a38611a7a565b7f5c91514091af31f62f596a314af7d5be40146b2f2355969392f055e12e0982fb5f9081526020527fac55d60145c2b1e72232130507b090ddd2cd26daa31eeab1e3e64b89140e668e54610a8b90610261565b73ffffffffffffffffffffffffffffffffffffffff81165f9081527fac55d60145c2b1e72232130507b090ddd2cd26daa31eeab1e3e64b89140e668d602052604090205460ff16610ad857005b73ffffffffffffffffffffffffffffffffffffffff165f8181527fac55d60145c2b1e72232130507b090ddd2cd26daa31eeab1e3e64b89140e668d60205260408120805460ff191690553391907f5c91514091af31f62f596a314af7d5be40146b2f2355969392f055e12e0982fb907ff6391f5c32d9c69d2a47ea670b442974b53935d1edc7fd64eb21e047a839171b9080a4005b346101f5575f6003193601126101f55760206040517f19c860a63258efbd0ecb7d55c626237bf5c2044c26c073390b74f0c13c8574338152f35b346101f55760206003193601126101f557610bc0611a7a565b73ffffffffffffffffffffffffffffffffffffffff165f9081527f9e350b38c6d0090a0631963682975411c4e88e66bd66d7f4ffcc296b4c83bf93602090815260409182902054915160ff9092161515825290f35b346101f5575f6003193601126101f55760206040517f5c91514091af31f62f596a314af7d5be40146b2f2355969392f055e12e0982fb8152f35b346101f55760206003193601126101f557610c68611a7a565b73ffffffffffffffffffffffffffffffffffffffff165f9081527fa2630211c42039a24e17727bf18ec344681c4916090d2a50e04b9b6e50b7fea9602090815260409182902054915160ff9092161515825290f35b346101f55760206003193601126101f557610cd6611a7a565b7f8aa855a911518ecfbe5bc3088c8f3dda7badf130faaf8ace33fdc33828e181675f9081526020527fa2630211c42039a24e17727bf18ec344681c4916090d2a50e04b9b6e50b7feaa54610d2990610261565b73ffffffffffffffffffffffffffffffffffffffff81165f9081527fa2630211c42039a24e17727bf18ec344681c4916090d2a50e04b9b6e50b7fea9602052604090205460ff1615610d7757005b73ffffffffffffffffffffffffffffffffffffffff165f8181527fa2630211c42039a24e17727bf18ec344681c4916090d2a50e04b9b6e50b7fea960205260408120805460ff191660011790553391907f8aa855a911518ecfbe5bc3088c8f3dda7badf130faaf8ace33fdc33828e18167907f2f8788117e7eff1d82e926ec794901d17c78024a50270940304540a733656f0d9080a4005b346101f5575f6003193601126101f55760206040517f939b8dfb57ecef2aea54a93a15e86768b9d4089f1ba61c245e6ec980695f4ca48152f35b346101f5575f6003193601126101f55760206040517f8aa855a911518ecfbe5bc3088c8f3dda7badf130faaf8ace33fdc33828e181678152f35b346101f55760206003193601126101f557610e9c611a7a565b7f8aa855a911518ecfbe5bc3088c8f3dda7badf130faaf8ace33fdc33828e181675f9081526020527fa2630211c42039a24e17727bf18ec344681c4916090d2a50e04b9b6e50b7feaa54610eef90610261565b73ffffffffffffffffffffffffffffffffffffffff81165f9081527fa2630211c42039a24e17727bf18ec344681c4916090d2a50e04b9b6e50b7fea9602052604090205460ff16610f3c57005b73ffffffffffffffffffffffffffffffffffffffff165f8181527fa2630211c42039a24e17727bf18ec344681c4916090d2a50e04b9b6e50b7fea960205260408120805460ff191690553391907f8aa855a911518ecfbe5bc3088c8f3dda7badf130faaf8ace33fdc33828e18167907ff6391f5c32d9c69d2a47ea670b442974b53935d1edc7fd64eb21e047a839171b9080a4005b346101f55760406003193601126101f557610fea611a9d565b3373ffffffffffffffffffffffffffffffffffffffff8216036110135761038790600435611b98565b60846040517f08c379a000000000000000000000000000000000000000000000000000000000815260206004820152602f60248201527f416363657373436f6e74726f6c3a2063616e206f6e6c792072656e6f756e636560448201527f20726f6c657320666f722073656c6600000000000000000000000000000000006064820152fd5b346101f55760406003193601126101f5576004356110b3611a9d565b906110cc610261825f525f602052600160405f20015490565b805f525f60205260405f2073ffffffffffffffffffffffffffffffffffffffff83165f5260205260ff60405f2054161561110257005b805f525f60205260405f2073ffffffffffffffffffffffffffffffffffffffff83165f5260205260405f20600160ff1982541617905573ffffffffffffffffffffffffffffffffffffffff339216907f2f8788117e7eff1d82e926ec794901d17c78024a50270940304540a733656f0d5f80a4005b346101f55760206003193601126101f557611190611a7a565b7f939b8dfb57ecef2aea54a93a15e86768b9d4089f1ba61c245e6ec980695f4ca45f9081526020527f2eadd72b6698cc7bfac8abf613f53107771ac2a3e4a3221cda0a8e2b1b91b0b5546111e390610261565b73ffffffffffffffffffffffffffffffffffffffff81165f9081527f2eadd72b6698cc7bfac8abf613f53107771ac2a3e4a3221cda0a8e2b1b91b0b4602052604090205460ff1661123057005b73ffffffffffffffffffffffffffffffffffffffff165f8181527f2eadd72b6698cc7bfac8abf613f53107771ac2a3e4a3221cda0a8e2b1b91b0b460205260408120805460ff191690553391907f939b8dfb57ecef2aea54a93a15e86768b9d4089f1ba61c245e6ec980695f4ca4907ff6391f5c32d9c69d2a47ea670b442974b53935d1edc7fd64eb21e047a839171b9080a4005b346101f55760206003193601126101f5576112de611a7a565b73ffffffffffffffffffffffffffffffffffffffff165f9081527fac55d60145c2b1e72232130507b090ddd2cd26daa31eeab1e3e64b89140e668d602090815260409182902054915160ff9092161515825290f35b346101f55760206003193601126101f557602061135d6004355f525f602052600160405f20015490565b604051908152f35b346101f55760206003193601126101f55761137e611a7a565b7f12ad05bde78c5ab75238ce885307f96ecd482bb402ef831f99e7018a0f169b7b5f9081526020527fd21b659ff028ba5860060da0a2ef0b8b1b13b1f79963511fcee160c2e54d2f23546113d190610261565b73ffffffffffffffffffffffffffffffffffffffff81165f9081527fd21b659ff028ba5860060da0a2ef0b8b1b13b1f79963511fcee160c2e54d2f22602052604090205460ff161561141f57005b73ffffffffffffffffffffffffffffffffffffffff165f8181527fd21b659ff028ba5860060da0a2ef0b8b1b13b1f79963511fcee160c2e54d2f2260205260408120805460ff191660011790553391907f12ad05bde78c5ab75238ce885307f96ecd482bb402ef831f99e7018a0f169b7b907f2f8788117e7eff1d82e926ec794901d17c78024a50270940304540a733656f0d9080a4005b346101f55760406003193601126101f557335f9081527fad3228b676f7d3cd4284a5443f17f1962b36e491b30a40b2405849e597ba5fb56020526040902054602435906004359060ff16156115525761151b815f525f602052600160405f20015490565b90805f525f60205282600160405f2001557fbd79b86ffe0ab8e8776151514217cd7cacd52c909f66475c3af44e129f0b00ff5f80a4005b61155b33611cb9565b6044602061160e601161156d5f611e30565b603760405194859281808501997f416363657373436f6e74726f6c3a206163636f756e74200000000000000000008b528051918291018587015e8401907f206973206d697373696e6720726f6c652000000000000000000000000000000084830152805192839101604883015e01015f8382015203017fffffffffffffffffffffffffffffffffffffffffffffffffffffffffffffffe08101835282611ac0565b7fffffffffffffffffffffffffffffffffffffffffffffffffffffffffffffffe0601f6040519485937f08c379a0000000000000000000000000000000000000000000000000000000008552602060048601525180918160248701528686015e5f85828601015201168101030190fd5b346101f55760206003193601126101f557611697611a7a565b7f5c91514091af31f62f596a314af7d5be40146b2f2355969392f055e12e0982fb5f9081526020527fac55d60145c2b1e72232130507b090ddd2cd26daa31eeab1e3e64b89140e668e546116ea90610261565b73ffffffffffffffffffffffffffffffffffffffff81165f9081527fac55d60145c2b1e72232130507b090ddd2cd26daa31eeab1e3e64b89140e668d602052604090205460ff161561173857005b73ffffffffffffffffffffffffffffffffffffffff165f8181527fac55d60145c2b1e72232130507b090ddd2cd26daa31eeab1e3e64b89140e668d60205260408120805460ff191660011790553391907f5c91514091af31f62f596a314af7d5be40146b2f2355969392f055e12e0982fb907f2f8788117e7eff1d82e926ec794901d17c78024a50270940304540a733656f0d9080a4005b346101f55760206003193601126101f5576117e9611a7a565b73ffffffffffffffffffffffffffffffffffffffff165f9081527fcba084d2e26105260e9ae84b007967d64af085c681345e4941eeba502738cf44602090815260409182902054915160ff9092161515825290f35b346101f5575f6003193601126101f557602060405173ffffffffffffffffffffffffffffffffffffffff7f0000000000000000000000000000000000000000000000000000000000000000168152f35b346101f55760206003193601126101f5576118a7611a7a565b7f08fb31c3e81624356c3314088aa971b73bcc82d22bc3e3b184b4593077ae32785f9081526020527f9e350b38c6d0090a0631963682975411c4e88e66bd66d7f4ffcc296b4c83bf94546118fa90610261565b73ffffffffffffffffffffffffffffffffffffffff81165f9081527f9e350b38c6d0090a0631963682975411c4e88e66bd66d7f4ffcc296b4c83bf93602052604090205460ff1661194757005b73ffffffffffffffffffffffffffffffffffffffff165f8181527f9e350b38c6d0090a0631963682975411c4e88e66bd66d7f4ffcc296b4c83bf9360205260408120805460ff191690553391907f08fb31c3e81624356c3314088aa971b73bcc82d22bc3e3b184b4593077ae3278907ff6391f5c32d9c69d2a47ea670b442974b53935d1edc7fd64eb21e047a839171b9080a4005b346101f55760206003193601126101f557600435907fffffffff0000000000000000000000000000000000000000000000000000000082168092036101f557817f7965db0b0000000000000000000000000000000000000000000000000000000060209314908115611a50575b5015158152f35b7f01ffc9a70000000000000000000000000000000000000000000000000000000091501483611a49565b6004359073ffffffffffffffffffffffffffffffffffffffff821682036101f557565b6024359073ffffffffffffffffffffffffffffffffffffffff821682036101f557565b90601f7fffffffffffffffffffffffffffffffffffffffffffffffffffffffffffffffe0910116810190811067ffffffffffffffff821117611b0157604052565b7f4e487b71000000000000000000000000000000000000000000000000000000005f52604160045260245ffd5b90815f525f60205260405f2073ffffffffffffffffffffffffffffffffffffffff82165f5260205260ff60405f20541615611b67575050565b602061160e601161156d611b9273ffffffffffffffffffffffffffffffffffffffff60449616611cb9565b95611e30565b805f525f60205260405f2073ffffffffffffffffffffffffffffffffffffffff83165f5260205260ff60405f205416611bcf575050565b805f525f60205260405f2073ffffffffffffffffffffffffffffffffffffffff83165f5260205260405f2060ff19815416905573ffffffffffffffffffffffffffffffffffffffff339216907ff6391f5c32d9c69d2a47ea670b442974b53935d1edc7fd64eb21e047a839171b5f80a4565b67ffffffffffffffff8111611b0157601f017fffffffffffffffffffffffffffffffffffffffffffffffffffffffffffffffe01660200190565b908151811015611c8c570160200190565b7f4e487b71000000000000000000000000000000000000000000000000000000005f52603260045260245ffd5b611cc3602a611c41565b90611cd16040519283611ac0565b602a8252611cdf602a611c41565b7fffffffffffffffffffffffffffffffffffffffffffffffffffffffffffffffe0602084019101368237825115611c8c5760309053815160011015611c8c576078602183015360295b60018111611d965750611d385790565b60646040517f08c379a000000000000000000000000000000000000000000000000000000000815260206004820152602060248201527f537472696e67733a20686578206c656e67746820696e73756666696369656e746044820152fd5b90600f81166010811015611c8c577f3031323334353637383961626364656600000000000000000000000000000000901a611dd18385611c7b565b5360041c908015611e03577fffffffffffffffffffffffffffffffffffffffffffffffffffffffffffffffff01611d28565b7f4e487b71000000000000000000000000000000000000000000000000000000005f52601160045260245ffd5b611e3a6042611c41565b90611e486040519283611ac0565b60428252611e566042611c41565b7fffffffffffffffffffffffffffffffffffffffffffffffffffffffffffffffe0602084019101368237825115611c8c5760309053815160011015611c8c576078602183015360415b60018111611eaf5750611d385790565b90600f81166010811015611c8c577f3031323334353637383961626364656600000000000000000000000000000000901a611eea8385611c7b565b5360041c908015611e03577fffffffffffffffffffffffffffffffffffffffffffffffffffffffffffffffff01611e9f56fea2646970667358221220c1acf774315b640ece686ca29cd3bc3524b264209fc6f4bf0d22df1ea199e3fa64736f6c634300081c0033ad3228b676f7d3cd4284a5443f17f1962b36e491b30a40b2405849e597ba5fb5",
  "linkReferences": {},
  "deployedLinkReferences": {},
  "immutableReferences": {
    "42518": [
      {
        "length": 32,
        "start": 6250
      }
    ]
  },
  "inputSourceName": "project/contracts/src/protocol/hub/lending/contracts/protocol/configuration/ACLManager.sol",
  "buildInfoId": "solc-0_8_28-9bce02a79542402ff6c5684ee3c2362639ea21be"
}