{
  "_format": "hh3-artifact-1",
  "contractName": "GasFund",
  "sourceName": "contracts/src/protocol/message/GasFund.sol",
  "abi": [
    {
      "inputs": [
        {
          "internalType": "address",
          "name": "owner_",
          "type": "address"
        }
      ],
      "stateMutability": "nonpayable",
      "type": "constructor"
    },
    {
      "inputs": [
        {
          "internalType": "address",
          "name": "owner",
          "type": "address"
        }
      ],
      "name": "OwnableInvalidOwner",
      "type": "error"
    },
    {
      "inputs": [
        {
          "internalType": "address",
          "name": "account",
          "type": "address"
        }
      ],
      "name": "OwnableUnauthorizedAccount",
      "type": "error"
    },
    {
      "anonymous": false,
      "inputs": [
        {
          "indexed": true,
          "internalType": "address",
          "name": "previousOwner",
          "type": "address"
        },
        {
          "indexed": true,
          "internalType": "address",
          "name": "newOwner",
          "type": "address"
        }
      ],
      "name": "OwnershipTransferred",
      "type": "event"
    },
    {
      "stateMutability": "payable",
      "type": "fallback"
    },
    {
      "inputs": [
        {
          "internalType": "uint256",
          "name": "value",
          "type": "uint256"
        }
      ],
      "name": "fund",
      "outputs": [],
      "stateMutability": "nonpayable",
      "type": "function"
    },
    {
      "inputs": [],
      "name": "owner",
      "outputs": [
        {
          "internalType": "address",
          "name": "",
          "type": "address"
        }
      ],
      "stateMutability": "view",
      "type": "function"
    },
    {
      "inputs": [
        {
          "internalType": "address",
          "name": "",
          "type": "address"
        }
      ],
      "name": "receiveGas",
      "outputs": [
        {
          "internalType": "bool",
          "name": "",
          "type": "bool"
        }
      ],
      "stateMutability": "view",
      "type": "function"
    },
    {
      "inputs": [],
      "name": "renounceOwnership",
      "outputs": [],
      "stateMutability": "nonpayable",
      "type": "function"
    },
    {
      "inputs": [
        {
          "internalType": "address",
          "name": "receiver",
          "type": "address"
        },
        {
          "internalType": "bool",
          "name": "access",
          "type": "bool"
        }
      ],
      "name": "setReceiveGas",
      "outputs": [],
      "stateMutability": "nonpayable",
      "type": "function"
    },
    {
      "inputs": [
        {
          "internalType": "address",
          "name": "newOwner",
          "type": "address"
        }
      ],
      "name": "transferOwnership",
      "outputs": [],
      "stateMutability": "nonpayable",
      "type": "function"
    },
    {
      "stateMutability": "payable",
      "type": "receive"
    }
  ],
  "bytecode": "0x60803460b857601f61068e38819003918201601f19168301916001600160401b0383118484101760bc5780849260209460405283398101031260b857516001600160a01b0381169081900360b857801560a5575f80546001600160a01b031981168317825560405192916001600160a01b03909116907f8be0079c531659141344cd1fd0a4f28419497f9722a3daafe3b4186f6b6457e09080a36105bd90816100d18239f35b631e4fbdf760e01b5f525f60045260245ffd5b5f80fd5b634e487b7160e01b5f52604160045260245ffdfe608080604052600436101561001057005b5f3560e01c9081632bc70695146104b457508063324e95a914610415578063715018a61461037b5780638da5cb5b1461032b578063ca1d209d1461014a5763f2fde38b1461005a57005b346101465760207ffffffffffffffffffffffffffffffffffffffffffffffffffffffffffffffffc3601126101465773ffffffffffffffffffffffffffffffffffffffff6100a6610518565b6100ae61053b565b16801561011a5773ffffffffffffffffffffffffffffffffffffffff5f54827fffffffffffffffffffffffff00000000000000000000000000000000000000008216175f55167f8be0079c531659141344cd1fd0a4f28419497f9722a3daafe3b4186f6b6457e05f80a3005b7f1e4fbdf7000000000000000000000000000000000000000000000000000000005f525f60045260245ffd5b5f80fd5b346101465760207ffffffffffffffffffffffffffffffffffffffffffffffffffffffffffffffffc3601126101465760043573ffffffffffffffffffffffffffffffffffffffff5f541633148015610315575b156102b7574781116102b0575b5f80808093335af13d156102ab573d67ffffffffffffffff811161027e57604051907fffffffffffffffffffffffffffffffffffffffffffffffffffffffffffffffe0603f81601f8401160116820182811067ffffffffffffffff82111761027e5760405281525f60203d92013e5b1561022057005b60646040517f08c379a000000000000000000000000000000000000000000000000000000000815260206004820152600b60248201527f66756e64206661696c65640000000000000000000000000000000000000000006044820152fd5b7f4e487b71000000000000000000000000000000000000000000000000000000005f52604160045260245ffd5b610219565b50476101aa565b60646040517f08c379a000000000000000000000000000000000000000000000000000000000815260206004820152601660248201527f63616c6c65722063616e6e6f74206765742066756e64000000000000000000006044820152fd5b50335f52600160205260ff60405f20541661019d565b34610146575f7ffffffffffffffffffffffffffffffffffffffffffffffffffffffffffffffffc36011261014657602073ffffffffffffffffffffffffffffffffffffffff5f5416604051908152f35b34610146575f7ffffffffffffffffffffffffffffffffffffffffffffffffffffffffffffffffc360112610146576103b161053b565b5f73ffffffffffffffffffffffffffffffffffffffff81547fffffffffffffffffffffffff000000000000000000000000000000000000000081168355167f8be0079c531659141344cd1fd0a4f28419497f9722a3daafe3b4186f6b6457e08280a3005b346101465760407ffffffffffffffffffffffffffffffffffffffffffffffffffffffffffffffffc3601126101465761044c610518565b602435908115158092036101465773ffffffffffffffffffffffffffffffffffffffff9061047861053b565b165f52600160205260405f209060ff7fffffffffffffffffffffffffffffffffffffffffffffffffffffffffffffff0083541691161790555f80f35b346101465760207ffffffffffffffffffffffffffffffffffffffffffffffffffffffffffffffffc3601126101465760209073ffffffffffffffffffffffffffffffffffffffff610503610518565b165f526001825260ff60405f20541615158152f35b6004359073ffffffffffffffffffffffffffffffffffffffff8216820361014657565b73ffffffffffffffffffffffffffffffffffffffff5f5416330361055b57565b7f118cdaa7000000000000000000000000000000000000000000000000000000005f523360045260245ffdfea264697066735822122049247ca4ecf94a215978e793b71df68b2232ea1e634b77f14a0507ea8f80943a64736f6c634300081c0033",
  "linkReferences": {},
  "deployedLinkReferences": {},
  "immutableReferences": {},
  "inputSourceName": "project/contracts/src/protocol/message/GasFund.sol",
  "buildInfoId": "solc-0_8_28-9bce02a79542402ff6c5684ee3c2362639ea21be"
}