{
  "_format": "hh3-artifact-1",
  "contractName": "OmniAsset",
  "sourceName": "contracts/src/protocol/hub/asset/OmniAsset.sol",
  "abi": [
    {
      "inputs": [
        {
          "internalType": "contract IAddressesProvider",
          "name": "provider",
          "type": "address"
        },
        {
          "internalType": "string",
          "name": "name_",
          "type": "string"
        },
        {
          "internalType": "string",
          "name": "symbol_",
          "type": "string"
        },
        {
          "internalType": "uint8",
          "name": "decimals_",
          "type": "uint8"
        }
      ],
      "stateMutability": "nonpayable",
      "type": "constructor"
    },
    {
      "inputs": [
        {
          "internalType": "address",
          "name": "spender",
          "type": "address"
        },
        {
          "internalType": "uint256",
          "name": "allowance",
          "type": "uint256"
        },
        {
          "internalType": "uint256",
          "name": "needed",
          "type": "uint256"
        }
      ],
      "name": "ERC20InsufficientAllowance",
      "type": "error"
    },
    {
      "inputs": [
        {
          "internalType": "address",
          "name": "sender",
          "type": "address"
        },
        {
          "internalType": "uint256",
          "name": "balance",
          "type": "uint256"
        },
        {
          "internalType": "uint256",
          "name": "needed",
          "type": "uint256"
        }
      ],
      "name": "ERC20InsufficientBalance",
      "type": "error"
    },
    {
      "inputs": [
        {
          "internalType": "address",
          "name": "approver",
          "type": "address"
        }
      ],
      "name": "ERC20InvalidApprover",
      "type": "error"
    },
    {
      "inputs": [
        {
          "internalType": "address",
          "name": "receiver",
          "type": "address"
        }
      ],
      "name": "ERC20InvalidReceiver",
      "type": "error"
    },
    {
      "inputs": [
        {
          "internalType": "address",
          "name": "sender",
          "type": "address"
        }
      ],
      "name": "ERC20InvalidSender",
      "type": "error"
    },
    {
      "inputs": [
        {
          "internalType": "address",
          "name": "spender",
          "type": "address"
        }
      ],
      "name": "ERC20InvalidSpender",
      "type": "error"
    },
    {
      "anonymous": false,
      "inputs": [
        {
          "indexed": true,
          "internalType": "address",
          "name": "owner",
          "type": "address"
        },
        {
          "indexed": true,
          "internalType": "address",
          "name": "spender",
          "type": "address"
        },
        {
          "indexed": false,
          "internalType": "uint256",
          "name": "value",
          "type": "uint256"
        }
      ],
      "name": "Approval",
      "type": "event"
    },
    {
      "anonymous": false,
      "inputs": [
        {
          "indexed": true,
          "internalType": "address",
          "name": "from",
          "type": "address"
        },
        {
          "indexed": true,
          "internalType": "address",
          "name": "to",
          "type": "address"
        },
        {
          "indexed": false,
          "internalType": "uint256",
          "name": "value",
          "type": "uint256"
        }
      ],
      "name": "Transfer",
      "type": "event"
    },
    {
      "inputs": [],
      "name": "ADDRESSES_PROVIDER",
      "outputs": [
        {
          "internalType": "contract IAddressesProvider",
          "name": "",
          "type": "address"
        }
      ],
      "stateMutability": "view",
      "type": "function"
    },
    {
      "inputs": [
        {
          "internalType": "address",
          "name": "owner",
          "type": "address"
        },
        {
          "internalType": "address",
          "name": "spender",
          "type": "address"
        }
      ],
      "name": "allowance",
      "outputs": [
        {
          "internalType": "uint256",
          "name": "",
          "type": "uint256"
        }
      ],
      "stateMutability": "view",
      "type": "function"
    },
    {
      "inputs": [
        {
          "internalType": "address",
          "name": "spender",
          "type": "address"
        },
        {
          "internalType": "uint256",
          "name": "value",
          "type": "uint256"
        }
      ],
      "name": "approve",
      "outputs": [
        {
          "internalType": "bool",
          "name": "",
          "type": "bool"
        }
      ],
      "stateMutability": "nonpayable",
      "type": "function"
    },
    {
      "inputs": [
        {
          "internalType": "address",
          "name": "account",
          "type": "address"
        }
      ],
      "name": "balanceOf",
      "outputs": [
        {
          "internalType": "uint256",
          "name": "",
          "type": "uint256"
        }
      ],
      "stateMutability": "view",
      "type": "function"
    },
    {
      "inputs": [
        {
          "internalType": "address",
          "name": "account",
          "type": "address"
        },
        {
          "internalType": "uint256",
          "name": "value",
          "type": "uint256"
        }
      ],
      "name": "burn",
      "outputs": [],
      "stateMutability": "nonpayable",
      "type": "function"
    },
    {
      "inputs": [],
      "name": "decimals",
      "outputs": [
        {
          "internalType": "uint8",
          "name": "",
          "type": "uint8"
        }
      ],
      "stateMutability": "view",
      "type": "function"
    },
    {
      "inputs": [
        {
          "internalType": "address",
          "name": "account",
          "type": "address"
        },
        {
          "internalType": "uint256",
          "name": "value",
          "type": "uint256"
        }
      ],
      "name": "mint",
      "outputs": [],
      "stateMutability": "nonpayable",
      "type": "function"
    },
    {
      "inputs": [],
      "name": "name",
      "outputs": [
        {
          "internalType": "string",
          "name": "",
          "type": "string"
        }
      ],
      "stateMutability": "view",
      "type": "function"
    },
    {
      "inputs": [],
      "name": "symbol",
      "outputs": [
        {
          "internalType": "string",
          "name": "",
          "type": "string"
        }
      ],
      "stateMutability": "view",
      "type": "function"
    },
    {
      "inputs": [],
      "name": "totalSupply",
      "outputs": [
        {
          "internalType": "uint256",
          "name": "",
          "type": "uint256"
        }
      ],
      "stateMutability": "view",
      "type": "function"
    },
    {
      "inputs": [
        {
          "internalType": "address",
          "name": "to",
          "type": "address"
        },
        {
          "internalType": "uint256",
          "name": "value",
          "type": "uint256"
        }
      ],
      "name": "transfer",
      "outputs": [
        {
          "internalType": "bool",
          "name": "",
          "type": "bool"
        }
      ],
      "stateMutability": "nonpayable",
      "type": "function"
    },
    {
      "inputs": [
        {
          "internalType": "address",
          "name": "from",
          "type": "address"
        },
        {
          "internalType": "address",
          "name": "to",
          "type": "address"
        },
        {
          "internalType": "uint256",
          "name": "value",
          "type": "uint256"
        }
      ],
      "name": "transferFrom",
      "outputs": [
        {
          "internalType": "bool",
          "name": "",
          "type": "bool"
        }
      ],
      "stateMutability": "nonpayable",
      "type": "function"
    }
  ],
  "bytecode": "0x60806040523461035d57610f758038038061001981610361565b92833981019060808183031261035d5780516001600160a01b0381169081900361035d5760208201516001600160401b03811161035d578361005c918401610386565b60408301519093906001600160401b03811161035d57606091610080918501610386565b9201519060ff8216820361035d5783516001600160401b03811161026e57600354600181811c91168015610353575b602082101461025057601f81116102f0575b50602094601f821160011461028d579481929394955f92610282575b50508160011b915f199060031b1c1916176003555b82516001600160401b03811161026e57600454600181811c91168015610264575b602082101461025057601f81116101ed575b506020601f821160011461018a57819293945f9261017f575b50508160011b915f199060031b1c1916176004555b6005549160ff60a01b9060a01b169160018060a81b0319161717600555604051610b9d90816103d88239f35b015190505f8061013e565b601f1982169060045f52805f20915f5b8181106101d5575095836001959697106101bd575b505050811b01600455610153565b01515f1960f88460031b161c191690555f80806101af565b9192602060018192868b01518155019401920161019a565b60045f527f8a35acfbc15ff81a39ae7d344fd709f28e8600b4aa8c65c6b64bfe7fe36bd19b601f830160051c81019160208410610246575b601f0160051c01905b81811061023b5750610125565b5f815560010161022e565b9091508190610225565b634e487b7160e01b5f52602260045260245ffd5b90607f1690610113565b634e487b7160e01b5f52604160045260245ffd5b015190505f806100dd565b601f1982169560035f52805f20915f5b8881106102d8575083600195969798106102c0575b505050811b016003556100f2565b01515f1960f88460031b161c191690555f80806102b2565b9192602060018192868501518155019401920161029d565b60035f527fc2575a0e9e593c00f959f8c92f12db2869c3395a3b0502d05e2516446f71f85b601f830160051c81019160208410610349575b601f0160051c01905b81811061033e57506100c1565b5f8155600101610331565b9091508190610328565b90607f16906100af565b5f80fd5b6040519190601f01601f191682016001600160401b0381118382101761026e57604052565b81601f8201121561035d578051906001600160401b03821161026e576103b5601f8301601f1916602001610361565b928284526020838301011161035d57815f9260208093018386015e830101529056fe6080806040526004361015610012575f80fd5b5f3560e01c9081630542975c146108e05750806306fdde0314610825578063095ea7b31461079657806318160ddd1461077957806323b872dd14610603578063313ce567146105e057806340c10f191461047457806370a082311461043057806395d89b41146102f55780639dc29fac14610143578063a9059cbb146101125763dd62ed3e146100a0575f80fd5b3461010e57604060031936011261010e576100b9610958565b73ffffffffffffffffffffffffffffffffffffffff6100d661097b565b91165f52600160205273ffffffffffffffffffffffffffffffffffffffff60405f2091165f52602052602060405f2054604051908152f35b5f80fd5b3461010e57604060031936011261010e5761013861012e610958565b6024359033610a9d565b602060405160018152f35b3461010e57604060031936011261010e5761015c610958565b6024803591602073ffffffffffffffffffffffffffffffffffffffff60055416604051938480927f21f8a7210000000000000000000000000000000000000000000000000000000082527f485542000000000000000000000000000000000000000000000000000000000060048301525afa80156102ea5773ffffffffffffffffffffffffffffffffffffffff6101ff9181945f916102bb575b50163314610a38565b16801561028f57805f525f60205260405f205482811061025d576020835f947fddf252ad1be2c89b69c2b068fc378daa952ba7f163c4a11628f55a4df523b3ef938587528684520360408620558060025403600255604051908152a3005b907fe450d38c000000000000000000000000000000000000000000000000000000005f5260045260245260445260645ffd5b7f96c6fd1e000000000000000000000000000000000000000000000000000000005f525f60045260245ffd5b6102dd915060203d6020116102e3575b6102d5818361099e565b810190610a0c565b866101f6565b503d6102cb565b6040513d5f823e3d90fd5b3461010e575f60031936011261010e576040515f6004548060011c90600181168015610426575b6020831081146103f9578285529081156103b75750600114610359575b610355836103498185038261099e565b60405191829182610910565b0390f35b91905060045f527f8a35acfbc15ff81a39ae7d344fd709f28e8600b4aa8c65c6b64bfe7fe36bd19b915f905b80821061039d57509091508101602001610349610339565b919260018160209254838588010152019101909291610385565b7fffffffffffffffffffffffffffffffffffffffffffffffffffffffffffffff001660208086019190915291151560051b840190910191506103499050610339565b7f4e487b71000000000000000000000000000000000000000000000000000000005f52602260045260245ffd5b91607f169161031c565b3461010e57602060031936011261010e5773ffffffffffffffffffffffffffffffffffffffff61045e610958565b165f525f602052602060405f2054604051908152f35b3461010e57604060031936011261010e5761048d610958565b6024803591602073ffffffffffffffffffffffffffffffffffffffff60055416604051938480927f21f8a7210000000000000000000000000000000000000000000000000000000082527f485542000000000000000000000000000000000000000000000000000000000060048301525afa80156102ea5773ffffffffffffffffffffffffffffffffffffffff61052f9181945f916102bb5750163314610a38565b169081156105b457600254908082018092116105875760207fddf252ad1be2c89b69c2b068fc378daa952ba7f163c4a11628f55a4df523b3ef915f9360025584845283825260408420818154019055604051908152a3005b7f4e487b71000000000000000000000000000000000000000000000000000000005f52601160045260245ffd5b7fec442f05000000000000000000000000000000000000000000000000000000005f525f60045260245ffd5b3461010e575f60031936011261010e57602060ff60055460a01c16604051908152f35b3461010e57606060031936011261010e5761061c610958565b61062461097b565b6044359073ffffffffffffffffffffffffffffffffffffffff831692835f52600160205260405f2073ffffffffffffffffffffffffffffffffffffffff33165f5260205260405f20547fffffffffffffffffffffffffffffffffffffffffffffffffffffffffffffffff81106106a0575b506101389350610a9d565b8381106107455784156107195733156106ed57610138945f52600160205260405f2073ffffffffffffffffffffffffffffffffffffffff33165f526020528360405f209103905584610695565b7f94280d62000000000000000000000000000000000000000000000000000000005f525f60045260245ffd5b7fe602df05000000000000000000000000000000000000000000000000000000005f525f60045260245ffd5b83907ffb8f41b2000000000000000000000000000000000000000000000000000000005f523360045260245260445260645ffd5b3461010e575f60031936011261010e576020600254604051908152f35b3461010e57604060031936011261010e576107af610958565b6024359033156107195773ffffffffffffffffffffffffffffffffffffffff169081156106ed57335f52600160205260405f20825f526020528060405f20556040519081527f8c5be1e5ebec7d5bd14f71427d1e84f3dd0314c0f7b2291e5b200ac8c7c3b92560203392a3602060405160018152f35b3461010e575f60031936011261010e576040515f6003548060011c906001811680156108d6575b6020831081146103f9578285529081156103b7575060011461087857610355836103498185038261099e565b91905060035f527fc2575a0e9e593c00f959f8c92f12db2869c3395a3b0502d05e2516446f71f85b915f905b8082106108bc57509091508101602001610349610339565b9192600181602092548385880101520191019092916108a4565b91607f169161084c565b3461010e575f60031936011261010e5760209073ffffffffffffffffffffffffffffffffffffffff600554168152f35b7fffffffffffffffffffffffffffffffffffffffffffffffffffffffffffffffe0601f602060409481855280519182918282880152018686015e5f8582860101520116010190565b6004359073ffffffffffffffffffffffffffffffffffffffff8216820361010e57565b6024359073ffffffffffffffffffffffffffffffffffffffff8216820361010e57565b90601f7fffffffffffffffffffffffffffffffffffffffffffffffffffffffffffffffe0910116810190811067ffffffffffffffff8211176109df57604052565b7f4e487b71000000000000000000000000000000000000000000000000000000005f52604160045260245ffd5b9081602091031261010e575173ffffffffffffffffffffffffffffffffffffffff8116810361010e5790565b15610a3f57565b60646040517f08c379a000000000000000000000000000000000000000000000000000000000815260206004820152600e60248201527f63616c6c6572206e6f74206875620000000000000000000000000000000000006044820152fd5b73ffffffffffffffffffffffffffffffffffffffff1690811561028f5773ffffffffffffffffffffffffffffffffffffffff169182156105b457815f525f60205260405f2054818110610b3557817fddf252ad1be2c89b69c2b068fc378daa952ba7f163c4a11628f55a4df523b3ef92602092855f525f84520360405f2055845f525f825260405f20818154019055604051908152a3565b827fe450d38c000000000000000000000000000000000000000000000000000000005f5260045260245260445260645ffdfea264697066735822122006c8e541b512601f8feb6f185fdb10d32953ad180e7a69fd7b61b35f7ee1dceb64736f6c634300081c0033",
  "linkReferences": {},
  "deployedLinkReferences": {},
  "immutableReferences": {},
  "inputSourceName": "project/contracts/src/protocol/hub/asset/OmniAsset.sol",
  "buildInfoId": "solc-0_8_28-13681f4d49d97497f2cb7d78eeb0153c82cc7e8c"
}