{
  "_format": "hh3-artifact-1",
  "contractName": "PoolAddressesProvider",
  "sourceName": "contracts/src/protocol/hub/lending/contracts/protocol/configuration/PoolAddressesProvider.sol",
  "abi": [
    {
      "inputs": [
        {
          "internalType": "string",
          "name": "marketId",
          "type": "string"
        },
        {
          "internalType": "address",
          "name": "owner",
          "type": "address"
        }
      ],
      "stateMutability": "nonpayable",
      "type": "constructor"
    },
    {
      "anonymous": false,
      "inputs": [
        {
          "indexed": true,
          "internalType": "address",
          "name": "oldAddress",
          "type": "address"
        },
        {
          "indexed": true,
          "internalType": "address",
          "name": "newAddress",
          "type": "address"
        }
      ],
      "name": "ACLAdminUpdated",
      "type": "event"
    },
    {
      "anonymous": false,
      "inputs": [
        {
          "indexed": true,
          "internalType": "address",
          "name": "oldAddress",
          "type": "address"
        },
        {
          "indexed": true,
          "internalType": "address",
          "name": "newAddress",
          "type": "address"
        }
      ],
      "name": "ACLManagerUpdated",
      "type": "event"
    },
    {
      "anonymous": false,
      "inputs": [
        {
          "indexed": true,
          "internalType": "bytes32",
          "name": "id",
          "type": "bytes32"
        },
        {
          "indexed": true,
          "internalType": "address",
          "name": "oldAddress",
          "type": "address"
        },
        {
          "indexed": true,
          "internalType": "address",
          "name": "newAddress",
          "type": "address"
        }
      ],
      "name": "AddressSet",
      "type": "event"
    },
    {
      "anonymous": false,
      "inputs": [
        {
          "indexed": true,
          "internalType": "bytes32",
          "name": "id",
          "type": "bytes32"
        },
        {
          "indexed": true,
          "internalType": "address",
          "name": "proxyAddress",
          "type": "address"
        },
        {
          "indexed": false,
          "internalType": "address",
          "name": "oldImplementationAddress",
          "type": "address"
        },
        {
          "indexed": true,
          "internalType": "address",
          "name": "newImplementationAddress",
          "type": "address"
        }
      ],
      "name": "AddressSetAsProxy",
      "type": "event"
    },
    {
      "anonymous": false,
      "inputs": [
        {
          "indexed": true,
          "internalType": "string",
          "name": "oldMarketId",
          "type": "string"
        },
        {
          "indexed": true,
          "internalType": "string",
          "name": "newMarketId",
          "type": "string"
        }
      ],
      "name": "MarketIdSet",
      "type": "event"
    },
    {
      "anonymous": false,
      "inputs": [
        {
          "indexed": true,
          "internalType": "address",
          "name": "previousOwner",
          "type": "address"
        },
        {
          "indexed": true,
          "internalType": "address",
          "name": "newOwner",
          "type": "address"
        }
      ],
      "name": "OwnershipTransferred",
      "type": "event"
    },
    {
      "anonymous": false,
      "inputs": [
        {
          "indexed": true,
          "internalType": "address",
          "name": "oldAddress",
          "type": "address"
        },
        {
          "indexed": true,
          "internalType": "address",
          "name": "newAddress",
          "type": "address"
        }
      ],
      "name": "PoolConfiguratorUpdated",
      "type": "event"
    },
    {
      "anonymous": false,
      "inputs": [
        {
          "indexed": true,
          "internalType": "address",
          "name": "oldAddress",
          "type": "address"
        },
        {
          "indexed": true,
          "internalType": "address",
          "name": "newAddress",
          "type": "address"
        }
      ],
      "name": "PoolDataProviderUpdated",
      "type": "event"
    },
    {
      "anonymous": false,
      "inputs": [
        {
          "indexed": true,
          "internalType": "address",
          "name": "oldAddress",
          "type": "address"
        },
        {
          "indexed": true,
          "internalType": "address",
          "name": "newAddress",
          "type": "address"
        }
      ],
      "name": "PoolUpdated",
      "type": "event"
    },
    {
      "anonymous": false,
      "inputs": [
        {
          "indexed": true,
          "internalType": "address",
          "name": "oldAddress",
          "type": "address"
        },
        {
          "indexed": true,
          "internalType": "address",
          "name": "newAddress",
          "type": "address"
        }
      ],
      "name": "PriceOracleSentinelUpdated",
      "type": "event"
    },
    {
      "anonymous": false,
      "inputs": [
        {
          "indexed": true,
          "internalType": "address",
          "name": "oldAddress",
          "type": "address"
        },
        {
          "indexed": true,
          "internalType": "address",
          "name": "newAddress",
          "type": "address"
        }
      ],
      "name": "PriceOracleUpdated",
      "type": "event"
    },
    {
      "anonymous": false,
      "inputs": [
        {
          "indexed": true,
          "internalType": "bytes32",
          "name": "id",
          "type": "bytes32"
        },
        {
          "indexed": true,
          "internalType": "address",
          "name": "proxyAddress",
          "type": "address"
        },
        {
          "indexed": true,
          "internalType": "address",
          "name": "implementationAddress",
          "type": "address"
        }
      ],
      "name": "ProxyCreated",
      "type": "event"
    },
    {
      "inputs": [],
      "name": "getACLAdmin",
      "outputs": [
        {
          "internalType": "address",
          "name": "",
          "type": "address"
        }
      ],
      "stateMutability": "view",
      "type": "function"
    },
    {
      "inputs": [],
      "name": "getACLManager",
      "outputs": [
        {
          "internalType": "address",
          "name": "",
          "type": "address"
        }
      ],
      "stateMutability": "view",
      "type": "function"
    },
    {
      "inputs": [
        {
          "internalType": "bytes32",
          "name": "id",
          "type": "bytes32"
        }
      ],
      "name": "getAddress",
      "outputs": [
        {
          "internalType": "address",
          "name": "",
          "type": "address"
        }
      ],
      "stateMutability": "view",
      "type": "function"
    },
    {
      "inputs": [],
      "name": "getMarketId",
      "outputs": [
        {
          "internalType": "string",
          "name": "",
          "type": "string"
        }
      ],
      "stateMutability": "view",
      "type": "function"
    },
    {
      "inputs": [],
      "name": "getPool",
      "outputs": [
        {
          "internalType": "address",
          "name": "",
          "type": "address"
        }
      ],
      "stateMutability": "view",
      "type": "function"
    },
    {
      "inputs": [],
      "name": "getPoolConfigurator",
      "outputs": [
        {
          "internalType": "address",
          "name": "",
          "type": "address"
        }
      ],
      "stateMutability": "view",
      "type": "function"
    },
    {
      "inputs": [],
      "name": "getPoolDataProvider",
      "outputs": [
        {
          "internalType": "address",
          "name": "",
          "type": "address"
        }
      ],
      "stateMutability": "view",
      "type": "function"
    },
    {
      "inputs": [],
      "name": "getPriceOracle",
      "outputs": [
        {
          "internalType": "address",
          "name": "",
          "type": "address"
        }
      ],
      "stateMutability": "view",
      "type": "function"
    },
    {
      "inputs": [],
      "name": "getPriceOracleSentinel",
      "outputs": [
        {
          "internalType": "address",
          "name": "",
          "type": "address"
        }
      ],
      "stateMutability": "view",
      "type": "function"
    },
    {
      "inputs": [],
      "name": "owner",
      "outputs": [
        {
          "internalType": "address",
          "name": "",
          "type": "address"
        }
      ],
      "stateMutability": "view",
      "type": "function"
    },
    {
      "inputs": [],
      "name": "renounceOwnership",
      "outputs": [],
      "stateMutability": "nonpayable",
      "type": "function"
    },
    {
      "inputs": [
        {
          "internalType": "address",
          "name": "newAclAdmin",
          "type": "address"
        }
      ],
      "name": "setACLAdmin",
      "outputs": [],
      "stateMutability": "nonpayable",
      "type": "function"
    },
    {
      "inputs": [
        {
          "internalType": "address",
          "name": "newAclManager",
          "type": "address"
        }
      ],
      "name": "setACLManager",
      "outputs": [],
      "stateMutability": "nonpayable",
      "type": "function"
    },
    {
      "inputs": [
        {
          "internalType": "bytes32",
          "name": "id",
          "type": "bytes32"
        },
        {
          "internalType": "address",
          "name": "newAddress",
          "type": "address"
        }
      ],
      "name": "setAddress",
      "outputs": [],
      "stateMutability": "nonpayable",
      "type": "function"
    },
    {
      "inputs": [
        {
          "internalType": "bytes32",
          "name": "id",
          "type": "bytes32"
        },
        {
          "internalType": "address",
          "name": "newImplementationAddress",
          "type": "address"
        }
      ],
      "name": "setAddressAsProxy",
      "outputs": [],
      "stateMutability": "nonpayable",
      "type": "function"
    },
    {
      "inputs": [
        {
          "internalType": "string",
          "name": "newMarketId",
          "type": "string"
        }
      ],
      "name": "setMarketId",
      "outputs": [],
      "stateMutability": "nonpayable",
      "type": "function"
    },
    {
      "inputs": [
        {
          "internalType": "address",
          "name": "newPoolConfiguratorImpl",
          "type": "address"
        }
      ],
      "name": "setPoolConfiguratorImpl",
      "outputs": [],
      "stateMutability": "nonpayable",
      "type": "function"
    },
    {
      "inputs": [
        {
          "internalType": "address",
          "name": "newDataProvider",
          "type": "address"
        }
      ],
      "name": "setPoolDataProvider",
      "outputs": [],
      "stateMutability": "nonpayable",
      "type": "function"
    },
    {
      "inputs": [
        {
          "internalType": "address",
          "name": "newPoolImpl",
          "type": "address"
        }
      ],
      "name": "setPoolImpl",
      "outputs": [],
      "stateMutability": "nonpayable",
      "type": "function"
    },
    {
      "inputs": [
        {
          "internalType": "address",
          "name": "newPriceOracle",
          "type": "address"
        }
      ],
      "name": "setPriceOracle",
      "outputs": [],
      "stateMutability": "nonpayable",
      "type": "function"
    },
    {
      "inputs": [
        {
          "internalType": "address",
          "name": "newPriceOracleSentinel",
          "type": "address"
        }
      ],
      "name": "setPriceOracleSentinel",
      "outputs": [],
      "stateMutability": "nonpayable",
      "type": "function"
    },
    {
      "inputs": [
        {
          "internalType": "address",
          "name": "newOwner",
          "type": "address"
        }
      ],
      "name": "transferOwnership",
      "outputs": [],
      "stateMutability": "nonpayable",
      "type": "function"
    }
  ],
  "bytecode": "0x608080604052346103a657612919803803809161001c82856103aa565b83398101906040818303126103a65780516001600160401b0381116103a65781019082601f830112156103a65781516001600160401b0381116103285760405193610071601f8301601f1916602001866103aa565b818552602082850101116103a6576020815f92828096018388015e8501015201516001600160a01b038116908190036103a6575f80546001600160a01b031916339081178255604051915f5160206128d95f395f51905f528180a36001545f826100da836103cd565b808252916001841680156103885760011461033c575b6100fc925003836103aa565b8351906001600160401b03821161032857610116906103cd565b601f81116102d8575b506020601f821160011461026f5791816101569261015c945f91610264575b508160011b915f199060031b1c191617600155610405565b92610405565b604051927fe685c8cdecc6030c45030fd54778812cb84ed8e4467c38294403d68ba78608235f80a35f546001600160a01b03811692338403610222575081156101ce5781604051935f5160206128d95f395f51905f525f80a36001600160a01b031916175f556124b790816104228239f35b60405162461bcd60e51b815260206004820152602660248201527f4f776e61626c653a206e6577206f776e657220697320746865207a65726f206160448201526564647265737360d01b6064820152608490fd5b62461bcd60e51b815260206004820181905260248201527f4f776e61626c653a2063616c6c6572206973206e6f7420746865206f776e65726044820152606490fd5b90508601515f61013e565b601f1982169060015f52805f20915f5b8181106102c057509261015c94926001928261015696106102a8575b5050811b01600155610405565b8801515f1960f88460031b161c191690555f8061029b565b9192602060018192868b01518155019401920161027f565b60015f525f5160206128f95f395f51905f52601f830160051c8101916020841061031e575b601f0160051c01905b818110610313575061011f565b5f8155600101610306565b90915081906102fd565b634e487b7160e01b5f52604160045260245ffd5b5060015f90815290915f5160206128f95f395f51905f525b81831061036c5750509060206100fc928201016100f0565b6020919350806001915483858901015201910190918492610354565b505060206100fc9260ff19851682840152151560051b8201016100f0565b5f80fd5b601f909101601f19168101906001600160401b0382119082101761032857604052565b90600182811c921680156103fb575b60208310146103e757565b634e487b7160e01b5f52602260045260245ffd5b91607f16916103dc565b602090604051918183925191829101835e81015f81520390209056fe60806040526004361015610011575f80fd5b5f5f3560e01c8063026b1d5f146118035780630e67178c146117a657806321f8a72114611766578063530e784f14611674578063568ef470146116415780635dcc528c1461130f5780635eb88d3d146112b0578063631adfca14611251578063707cd716146111f2578063715018a61461117157806374944cec1461107157806376d84ffc14610f715780638da5cb5b14610f3e578063a156440614610c3a578063ca446dd914610b77578063e44e9ed114610a77578063e4ca28b714610726578063e860accb146106c7578063ed301ca9146105c7578063f2fde38b146104ac578063f67b18471461016d5763fca513a81461010c575f80fd5b3461016a578060031936011261016a5773ffffffffffffffffffffffffffffffffffffffff604082602093507f50524943455f4f5241434c450000000000000000000000000000000000000000815260028452205416604051908152f35b80fd5b503461016a57602060031936011261016a576004359067ffffffffffffffff821161016a573660238301121561016a57816004013567ffffffffffffffff811161047f57604051926101e760207fffffffffffffffffffffffffffffffffffffffffffffffffffffffffffffffe0601f85011601856118e9565b818452366024838301011161047b57818392602460209301838701378401015261022973ffffffffffffffffffffffffffffffffffffffff8254163314611957565b610231611a0d565b9180519267ffffffffffffffff841161044e5761024f6001546119bc565b601f81116103ad575b50602093601f81116001146102e95790816102b09285966102b69596916102de575b507fffffffffffffffffffffffffffffffffffffffffffffffffffffffffffffffff8260011b9260031b1c191617600155611ca4565b91611ca4565b907fe685c8cdecc6030c45030fd54778812cb84ed8e4467c38294403d68ba78608238380a380f35b90508501515f61027a565b600184527fb10e2d527612073b26eecdfd717e6a320cf44b4afac2b0732d9fcbe2b7fa0cf67fffffffffffffffffffffffffffffffffffffffffffffffffffffffffffffffe08216855b8181106103955750916001916102b6959697826102b096951061035e575b5050811b01600155611ca4565b8701517fffffffffffffffffffffffffffffffffffffffffffffffffffffffffffffffff60f88460031b161c191690555f80610351565b85880151835560209788019760019093019201610333565b60018452601f850160051c7fb10e2d527612073b26eecdfd717e6a320cf44b4afac2b0732d9fcbe2b7fa0cf6019060208610610426575b601f0160051c7fb10e2d527612073b26eecdfd717e6a320cf44b4afac2b0732d9fcbe2b7fa0cf601905b81811061041b5750610258565b84815560010161040e565b7fb10e2d527612073b26eecdfd717e6a320cf44b4afac2b0732d9fcbe2b7fa0cf691506103e4565b6024837f4e487b710000000000000000000000000000000000000000000000000000000081526041600452fd5b8280fd5b6024827f4e487b710000000000000000000000000000000000000000000000000000000081526041600452fd5b503461016a57602060031936011261016a576104c6611860565b81549073ffffffffffffffffffffffffffffffffffffffff808316916104ed338414611957565b1691821561054357827fffffffffffffffffffffffff0000000000000000000000000000000000000000927f8be0079c531659141344cd1fd0a4f28419497f9722a3daafe3b4186f6b6457e08680a31617815580f35b60846040517f08c379a000000000000000000000000000000000000000000000000000000000815260206004820152602660248201527f4f776e61626c653a206e6577206f776e657220697320746865207a65726f206160448201527f64647265737300000000000000000000000000000000000000000000000000006064820152fd5b503461016a57602060031936011261016a576105e1611860565b61060373ffffffffffffffffffffffffffffffffffffffff8354163314611957565b7f41434c5f4d414e414745520000000000000000000000000000000000000000008252600260205273ffffffffffffffffffffffffffffffffffffffff80604084205416917f41434c5f4d414e4147455200000000000000000000000000000000000000000084526002602052604084208282167fffffffffffffffffffffffff000000000000000000000000000000000000000082541617905516907fb30efa04327bb8a537d61cc1e5c48095345ad18ef7cc04e6bacf7dfb6caaf5078380a380f35b503461016a578060031936011261016a5773ffffffffffffffffffffffffffffffffffffffff604082602093507f444154415f50524f564944455200000000000000000000000000000000000000815260028452205416604051908152f35b503461016a57602060031936011261016a57610740611860565b61076273ffffffffffffffffffffffffffffffffffffffff8354163314611957565b61076a611bdb565b907f504f4f4c5f434f4e464947555241544f52000000000000000000000000000000835260026020528273ffffffffffffffffffffffffffffffffffffffff604082205416604051907fc4d66de8000000000000000000000000000000000000000000000000000000006020830152306024830152602482526107ee6044836118e9565b806109f0575090506040516107c18082019082821067ffffffffffffffff8311176109c35782879392602092611cc1833930815203019082f080156109b65773ffffffffffffffffffffffffffffffffffffffff16917f504f4f4c5f434f4e464947555241544f52000000000000000000000000000000825260026020526040822073ffffffffffffffffffffffffffffffffffffffff84167fffffffffffffffffffffffff0000000000000000000000000000000000000000825416179055823b156109b257816108ee91604051809381927fd1f578940000000000000000000000000000000000000000000000000000000083528860048401611c74565b038183875af180156109a75761098e575b50508173ffffffffffffffffffffffffffffffffffffffff929183809316907f504f4f4c5f434f4e464947555241544f520000000000000000000000000000007f4a465a9bd819d9662563c1e11ae958f8109e437e7f4bf1c6ef0b9a7b3f35d4788880a45b1691167f8932892569eba59c8382a089d9b732d1f49272878775235761a2a6b0309cd4658380a380f35b81610998916118e9565b6109a357835f6108ff565b8380fd5b6040513d84823e3d90fd5b5080fd5b50604051903d90823e3d90fd5b6024877f4e487b710000000000000000000000000000000000000000000000000000000081526041600452fd5b803b1561047b57610a3583929183926040519485809481937f4f1ef2860000000000000000000000000000000000000000000000000000000083528a60048401611c74565b03925af180156109a757610a62575b505073ffffffffffffffffffffffffffffffffffffffff8091610964565b81610a6c916118e9565b61047b57825f610a44565b503461016a57602060031936011261016a57610a91611860565b610ab373ffffffffffffffffffffffffffffffffffffffff8354163314611957565b7f444154415f50524f5649444552000000000000000000000000000000000000008252600260205273ffffffffffffffffffffffffffffffffffffffff80604084205416917f444154415f50524f56494445520000000000000000000000000000000000000084526002602052604084208282167fffffffffffffffffffffffff000000000000000000000000000000000000000082541617905516907fc853974cfbf81487a14a23565917bee63f527853bcb5fa54f2ae1cdf8a38356d8380a380f35b503461016a57604060031936011261016a57600435610b94611883565b610bb673ffffffffffffffffffffffffffffffffffffffff8454163314611957565b818352600260205273ffffffffffffffffffffffffffffffffffffffff80604085205416918385526002602052604085208282167fffffffffffffffffffffffff000000000000000000000000000000000000000082541617905516917f9ef0e8c8e52743bb38b83b17d9429141d494b8041ca6d616a6c77cebae9cd8b78480a480f35b503461016a57602060031936011261016a57610c54611860565b610c7673ffffffffffffffffffffffffffffffffffffffff8354163314611957565b610c7e611ae2565b907f504f4f4c00000000000000000000000000000000000000000000000000000000835260026020528273ffffffffffffffffffffffffffffffffffffffff604082205416604051907fc4d66de800000000000000000000000000000000000000000000000000000000602083015230602483015260248252610d026044836118e9565b80610eb7575090506040516107c18082019082821067ffffffffffffffff8311176109c35782879392602092611cc1833930815203019082f080156109b65773ffffffffffffffffffffffffffffffffffffffff16917f504f4f4c00000000000000000000000000000000000000000000000000000000825260026020526040822073ffffffffffffffffffffffffffffffffffffffff84167fffffffffffffffffffffffff0000000000000000000000000000000000000000825416179055823b156109b25781610e0291604051809381927fd1f578940000000000000000000000000000000000000000000000000000000083528860048401611c74565b038183875af180156109a757610ea2575b50508173ffffffffffffffffffffffffffffffffffffffff929183809316907f504f4f4c000000000000000000000000000000000000000000000000000000007f4a465a9bd819d9662563c1e11ae958f8109e437e7f4bf1c6ef0b9a7b3f35d4788880a45b1691167f90affc163f1a2dfedcd36aa02ed992eeeba8100a4014f0b4cdc20ea265a666278380a380f35b81610eac916118e9565b6109a357835f610e13565b803b1561047b57610efc83929183926040519485809481937f4f1ef2860000000000000000000000000000000000000000000000000000000083528a60048401611c74565b03925af180156109a757610f29575b505073ffffffffffffffffffffffffffffffffffffffff8091610e78565b81610f33916118e9565b61047b57825f610f0b565b503461016a578060031936011261016a5773ffffffffffffffffffffffffffffffffffffffff6020915416604051908152f35b503461016a57602060031936011261016a57610f8b611860565b610fad73ffffffffffffffffffffffffffffffffffffffff8354163314611957565b7f41434c5f41444d494e00000000000000000000000000000000000000000000008252600260205273ffffffffffffffffffffffffffffffffffffffff80604084205416917f41434c5f41444d494e000000000000000000000000000000000000000000000084526002602052604084208282167fffffffffffffffffffffffff000000000000000000000000000000000000000082541617905516907fe9cf53972264dc95304fd424458745019ddfca0e37ae8f703d74772c41ad115b8380a380f35b503461016a57602060031936011261016a5761108b611860565b6110ad73ffffffffffffffffffffffffffffffffffffffff8354163314611957565b7f50524943455f4f5241434c455f53454e54494e454c00000000000000000000008252600260205273ffffffffffffffffffffffffffffffffffffffff80604084205416917f50524943455f4f5241434c455f53454e54494e454c000000000000000000000084526002602052604084208282167fffffffffffffffffffffffff000000000000000000000000000000000000000082541617905516907f5326514eeca90494a14bedabcff812a0e683029ee85d1e23824d44fd14cd6ae78380a380f35b503461016a578060031936011261016a577fffffffffffffffffffffffff000000000000000000000000000000000000000081548273ffffffffffffffffffffffffffffffffffffffff82166111c8338214611957565b7f8be0079c531659141344cd1fd0a4f28419497f9722a3daafe3b4186f6b6457e08280a316815580f35b503461016a578060031936011261016a5773ffffffffffffffffffffffffffffffffffffffff604082602093507f41434c5f4d414e41474552000000000000000000000000000000000000000000815260028452205416604051908152f35b503461016a578060031936011261016a5773ffffffffffffffffffffffffffffffffffffffff604082602093507f504f4f4c5f434f4e464947555241544f52000000000000000000000000000000815260028452205416604051908152f35b503461016a578060031936011261016a5773ffffffffffffffffffffffffffffffffffffffff604082602093507f50524943455f4f5241434c455f53454e54494e454c0000000000000000000000815260028452205416604051908152f35b503461163d57604060031936011261163d5760043561132c611883565b9061134f73ffffffffffffffffffffffffffffffffffffffff5f54163314611957565b805f52600260205273ffffffffffffffffffffffffffffffffffffffff60405f2054169061137c81611c45565b92815f52600260205273ffffffffffffffffffffffffffffffffffffffff60405f205416604051907fc4d66de8000000000000000000000000000000000000000000000000000000006020830152306024830152602482526113df6044836118e9565b806115895750906040516107c18082019082821067ffffffffffffffff83111761155c5782899392602092611cc1833930815203019082f080156109b65773ffffffffffffffffffffffffffffffffffffffff169284825260026020526040822073ffffffffffffffffffffffffffffffffffffffff85167fffffffffffffffffffffffff0000000000000000000000000000000000000000825416179055833b156109b257816114be91604051809381927fd1f578940000000000000000000000000000000000000000000000000000000083528760048401611c74565b038183885af180156109a757611543575b505073ffffffffffffffffffffffffffffffffffffffff817f3bbd45b5429b385e3fb37ad5cd1cd1435a3c8ec32196c7937597365a3fd3e99c93826020941690867f4a465a9bd819d9662563c1e11ae958f8109e437e7f4bf1c6ef0b9a7b3f35d4788b80a45b81604051971687521694a480f35b8161154d916118e9565b61155857855f6114cf565b8580fd5b6024897f4e487b710000000000000000000000000000000000000000000000000000000081526041600452fd5b803b1561163d576115ce5f929183926040519485809481937f4f1ef2860000000000000000000000000000000000000000000000000000000083528960048401611c74565b03925af180156116325761161c575b50602073ffffffffffffffffffffffffffffffffffffffff7f3bbd45b5429b385e3fb37ad5cd1cd1435a3c8ec32196c7937597365a3fd3e99c92611535565b6116299195505f906118e9565b5f9360206115dd565b6040513d5f823e3d90fd5b5f80fd5b3461163d575f60031936011261163d5761167061165c611a0d565b6040519182916020835260208301906118a6565b0390f35b3461163d57602060031936011261163d5761168d611860565b6116af73ffffffffffffffffffffffffffffffffffffffff5f54163314611957565b7f50524943455f4f5241434c4500000000000000000000000000000000000000005f90815260026020527f740f710666bd7a12af42df98311e541e47f7fd33d382d11602457a6d540cbd63805473ffffffffffffffffffffffffffffffffffffffff9384167fffffffffffffffffffffffff000000000000000000000000000000000000000082168117909255909216907f56b5f80d8cac1479698aa7d01605fd6111e90b15fc4d2b377417f46034876cbd9080a3005b3461163d57602060031936011261163d576004355f526002602052602073ffffffffffffffffffffffffffffffffffffffff60405f205416604051908152f35b3461163d575f60031936011261163d577f41434c5f41444d494e00000000000000000000000000000000000000000000005f526002602052602073ffffffffffffffffffffffffffffffffffffffff60405f205416604051908152f35b3461163d575f60031936011261163d577f504f4f4c000000000000000000000000000000000000000000000000000000005f526002602052602073ffffffffffffffffffffffffffffffffffffffff60405f205416604051908152f35b6004359073ffffffffffffffffffffffffffffffffffffffff8216820361163d57565b6024359073ffffffffffffffffffffffffffffffffffffffff8216820361163d57565b907fffffffffffffffffffffffffffffffffffffffffffffffffffffffffffffffe0601f602080948051918291828752018686015e5f8582860101520116010190565b90601f7fffffffffffffffffffffffffffffffffffffffffffffffffffffffffffffffe0910116810190811067ffffffffffffffff82111761192a57604052565b7f4e487b71000000000000000000000000000000000000000000000000000000005f52604160045260245ffd5b1561195e57565b60646040517f08c379a000000000000000000000000000000000000000000000000000000000815260206004820152602060248201527f4f776e61626c653a2063616c6c6572206973206e6f7420746865206f776e65726044820152fd5b90600182811c92168015611a03575b60208310146119d657565b7f4e487b71000000000000000000000000000000000000000000000000000000005f52602260045260245ffd5b91607f16916119cb565b604051905f8260015491611a20836119bc565b8083529260018116908115611aa55750600114611a46575b611a44925003836118e9565b565b5060015f90815290917fb10e2d527612073b26eecdfd717e6a320cf44b4afac2b0732d9fcbe2b7fa0cf65b818310611a89575050906020611a4492820101611a38565b6020919350806001915483858901015201910190918492611a71565b60209250611a449491507fffffffffffffffffffffffffffffffffffffffffffffffffffffffffffffff001682840152151560051b820101611a38565b7f504f4f4c000000000000000000000000000000000000000000000000000000005f5260026020527f4fe005067814bb4b024d9515847377d15011b64593c006223b4a722952d2c05a5473ffffffffffffffffffffffffffffffffffffffff1680611b4c57505f90565b60205f916004604051809481937f5c60da1b0000000000000000000000000000000000000000000000000000000083525af1908115611632575f91611b8f575090565b90506020813d602011611bd3575b81611baa602093836118e9565b8101031261163d575173ffffffffffffffffffffffffffffffffffffffff8116810361163d5790565b3d9150611b9d565b7f504f4f4c5f434f4e464947555241544f520000000000000000000000000000005f5260026020527f90c127ef1c12c03f5781afeca3079527ea5333738078bba6fea26825bf9bf2c55473ffffffffffffffffffffffffffffffffffffffff1680611b4c57505f90565b5f52600260205273ffffffffffffffffffffffffffffffffffffffff60405f20541680155f14611b4c57505f90565b60409073ffffffffffffffffffffffffffffffffffffffff611ca1949316815281602082015201906118a6565b90565b602090604051918183925191829101835e81015f81520390209056fe60a03461008557601f6107c138819003918201601f19168301916001600160401b038311848410176100895780849260209460405283398101031261008557516001600160a01b038116810361008557608052604051610723908161009e823960805181818160a2015281816101810152818161021f0152818161040b01526105100152f35b5f80fd5b634e487b7160e01b5f52604160045260245ffdfe60806040526004361015610019575b366104f9575b6104f9565b5f3560e01c80633659cfe6146100685780634f1ef286146100635780635c60da1b1461005e578063d1f57894146100595763f851a4400361000e576103db565b61034b565b6101ee565b61010e565b346100e75760207ffffffffffffffffffffffffffffffffffffffffffffffffffffffffffffffffc3601126100e75761009f6100eb565b337f000000000000000000000000000000000000000000000000000000000000000073ffffffffffffffffffffffffffffffffffffffff1603610014576100e5906105f8565b005b5f80fd5b6004359073ffffffffffffffffffffffffffffffffffffffff821682036100e757565b60407ffffffffffffffffffffffffffffffffffffffffffffffffffffffffffffffffc3601126100e7576101406100eb565b60243567ffffffffffffffff81116100e757366023820112156100e75780600401359167ffffffffffffffff83116100e75736602484840101116100e757337f000000000000000000000000000000000000000000000000000000000000000073ffffffffffffffffffffffffffffffffffffffff16036100145760245f939284936101cb846105f8565b80604051938493018337810184815203915af46101e6610468565b50156100e757005b346100e7575f7ffffffffffffffffffffffffffffffffffffffffffffffffffffffffffffffffc3601126100e757337f000000000000000000000000000000000000000000000000000000000000000073ffffffffffffffffffffffffffffffffffffffff16036100145760207f360894a13ba1a3210667c828492db98dca3e2076cc3735a920a3ca505d382bbc5473ffffffffffffffffffffffffffffffffffffffff60405191168152f35b7f4e487b71000000000000000000000000000000000000000000000000000000005f52604160045260245ffd5b907fffffffffffffffffffffffffffffffffffffffffffffffffffffffffffffffe0601f604051930116820182811067ffffffffffffffff82111761030c57604052565b61029b565b67ffffffffffffffff811161030c57601f017fffffffffffffffffffffffffffffffffffffffffffffffffffffffffffffffe01660200190565b60407ffffffffffffffffffffffffffffffffffffffffffffffffffffffffffffffffc3601126100e75761037d6100eb565b6024359067ffffffffffffffff82116100e757366023830112156100e7578160040135906103b26103ad83610311565b6102c8565b9180835236602482860101116100e7576020815f9260246100e59701838701378401015261048d565b346100e7575f7ffffffffffffffffffffffffffffffffffffffffffffffffffffffffffffffffc3601126100e7577f00000000000000000000000000000000000000000000000000000000000000003373ffffffffffffffffffffffffffffffffffffffff8216036100145760209073ffffffffffffffffffffffffffffffffffffffff60405191168152f35b3d15610488573d9061047c6103ad83610311565b9182523d5f602084013e565b606090565b9073ffffffffffffffffffffffffffffffffffffffff7f360894a13ba1a3210667c828492db98dca3e2076cc3735a920a3ca505d382bbc54166100e7576104d38261063e565b8051806104df57505050565b5f926020849301905af46104f1610468565b50156100e757565b73ffffffffffffffffffffffffffffffffffffffff7f0000000000000000000000000000000000000000000000000000000000000000163314610574575f807f360894a13ba1a3210667c828492db98dca3e2076cc3735a920a3ca505d382bbc54368280378136915af43d5f803e15610570573d5ff35b3d5ffd5b60846040517f08c379a000000000000000000000000000000000000000000000000000000000815260206004820152603260248201527f43616e6e6f742063616c6c2066616c6c6261636b2066756e6374696f6e20667260448201527f6f6d207468652070726f78792061646d696e00000000000000000000000000006064820152fd5b73ffffffffffffffffffffffffffffffffffffffff906106178161063e565b167fbc7cd75a20ee27fd9adebab32041f755214dbc6bffa90cc0225b39da2e5c2d3b5f80a2565b803b15610669577f360894a13ba1a3210667c828492db98dca3e2076cc3735a920a3ca505d382bbc55565b60846040517f08c379a000000000000000000000000000000000000000000000000000000000815260206004820152603b60248201527f43616e6e6f742073657420612070726f787920696d706c656d656e746174696f60448201527f6e20746f2061206e6f6e2d636f6e7472616374206164647265737300000000006064820152fdfea2646970667358221220e78bd01b2ec335e0b9831da98d5718e65478539eb93b11a762b5fc4061ca1d7b64736f6c634300081c0033a2646970667358221220f514458c044ae85e722bec79fac84a08403f3277de768d6e19b53810a25ee74c64736f6c634300081c00338be0079c531659141344cd1fd0a4f28419497f9722a3daafe3b4186f6b6457e0b10e2d527612073b26eecdfd717e6a320cf44b4afac2b0732d9fcbe2b7fa0cf6",
  "linkReferences": {},
  "deployedLinkReferences": {},
  "immutableReferences": {},
  "inputSourceName": "project/contracts/src/protocol/hub/lending/contracts/protocol/configuration/PoolAddressesProvider.sol",
  "buildInfoId": "solc-0_8_28-9bce02a79542402ff6c5684ee3c2362639ea21be"
}